:020000040800F2
:1000000000C00020051B0008591200085B12000800
:100010005D1200085F120008611200080000000075
:10002000000000000000000000000000813B00080C
:100030006312000800000000B13B0008F53B000817
:100040004D1B00084D1B00084D1B00084D1B0008F0
:100050004D1B00084D1B00084D1B00084D1B0008E0
:100060004D1B00084D1B00084D1B00084D1B0008D0
:100070004D1B00084D1B00084D1B000865120008B1
:10008000751200084D1B00084D1B00084D1B000891
:100090004D1B00084D1B00084D1B00084D1B0008A0
:1000A0004D1B00084D1B00084D1B00084D1B000890
:1000B0004D1B00084D1B00084D1B00084D1B000880
:1000C0004D1B00084D1B00084D1B00084D1B000870
:1000D0004D1B0008851200084D1B00084D1B000831
:1000E0004D1B00084D1B00084D1B00084D1B000850
:1000F0004D1B00084D1B00084D1B00084D1B000840
:100100004D1B00084D1B00084D1B00084D1B00082F
:100110004D1B00084D1B000895120008A512000891
:100120004D1B00084D1B00084D1B00084D1B00080F
:1001300000000000000000000000000000000000BF
:1001400000000000000000000000000000000000AF
:10015000000000000000000000000000000000009F
:10016000000000000000000000000000000000008F
:10017000000000000000000000000000000000007F
:10018000000000000000000000000000000000006F
:10019000000000000000000000000000000000005F
:1001A000000000000000000000000000000000004F
:1001B000000000000000000000000000000000003F
:1001C000000000000000000000000000000000002F
:1001D000000000000000000000000000000000001F
:0401E0005FF8E0F1F3
:1001F00010B5054C237833B9044B13B10448AFF361
:1002000000800123237010BDB80900200000000009
:100210004C9E000808B5034B1BB103490348AFF3DC
:10022000008008BD00000000BC0900204C9E0008B2
:1002300081F0004102E000BF83F0004330B54FEA97
:1002400041044FEA430594EA050F08BF90EA020F04
:100250001FBF54EA000C55EA020C7FEA645C7FEA97
:10026000655C00F0E2804FEA5454D4EB5555B8BFBA
:100270006D420CDD2C4480EA020281EA030382EA2B
:10028000000083EA010180EA020281EA0303362DBD
:1002900088BF30BD11F0004F4FEA01314FF4801C90
:1002A0004CEA113102D0404261EB410113F0004FA2
:1002B0004FEA03334CEA133302D0524263EB430359
:1002C00094EA050F00F0A780A4F10104D5F1200EF7
:1002D0000DDB02FA0EFC22FA05F2801841F1000152
:1002E00003FA0EF2801843FA05F359410EE0A5F126
:1002F00020050EF1200E012A03FA0EFC28BF4CF057
:10030000020C43FA05F3C01851EBE37101F000450C
:1003100007D54FF0000EDCF1000C7EEB00006EEB19
:100320000101B1F5801F1BD3B1F5001F0CD34908A3
:100330005FEA30004FEA3C0C04F101044FEA4452FA
:1003400012F5800F80F09A80BCF1004F08BF5FEA81
:10035000500C50F1000041EB045141EA050130BD61
:100360005FEA4C0C404141EB0101013C28BFB1F573
:10037000801FE9D291F0000F04BF01460020B1FABE
:1003800081F308BF2033A3F10B03B3F120020CDA91
:100390000C3208DD02F1140CC2F10C0201FA0CF06F
:1003A00021FA02F10CE002F11402D8BFC2F1200CD4
:1003B00001FA02F120FA0CFCDCBF41EA0C0190408A
:1003C000E41AA2BF01EB0451294330BD6FEA0404D3
:1003D0001F3C1CDA0C340EDC04F11404C4F12002BE
:1003E00020FA04F001FA02F340EA030021FA04F3D0
:1003F00045EA030130BDC4F10C04C4F1200220FA27
:1004000002F001FA04F340EA0300294630BD21FA64
:1004100004F0294630BD94F0000F83F4801306BF2A
:1004200081F480110134013D4EE77FEA645C18BF1E
:100430007FEA655C29D094EA050F08BF90EA020FB5
:1004400005D054EA000C04BF1946104630BD91EAAD
:10045000030F1EBF0021002030BD5FEA545C05D1B0
:100460004000494128BF41F0004130BD14F58004EF
:100470003CBF01F5801130BD01F0004545F0FE4163
:1004800041F470014FF0000030BD7FEA645C1ABF98
:10049000194610467FEA655C1CBF0B46024650EACF
:1004A000013406BF52EA033591EA030F41F40021FB
:1004B00030BD00BF90F0000F04BF0021704730B581
:1004C0004FF4806404F132044FF000054FF0000156
:1004D00050E700BF90F0000F04BF0021704730B517
:1004E0004FF4806404F1320410F0004548BF4042EC
:1004F0004FF000013EE700BF42004FEAE2014FEA41
:1005000031014FEA02701FBF12F07F4393F07F4F1B
:1005100081F06051704732F07F4208BF704793F01E
:100520007F4F04BF41F40021704730B54FF4607431
:1005300001F0004521F000411CE700BF50EA010234
:1005400008BF704730B54FF000050AE050EA0102DD
:1005500008BF704730B511F0004502D5404261EB4D
:1005600041014FF4806404F132045FEA915C3FF48E
:10057000D8AE4FF003025FEADC0C18BF03325FEA2B
:10058000DC0C18BF033202EBDC02C2F1200300FADC
:1005900003FC20FA02F001FA03FE40EA0E0021FA01
:1005A00002F11444BDE600BF4FF0FF3C06E000BF7F
:1005B0004FF0010C02E000BF4FF0010C4DF804CDEC
:1005C0004FEA410C7FEA6C5C4FEA430C18BF7FEAAC
:1005D0006C5C1BD001B050EA410C0CBF52EA430CDA
:1005E00091EA030F02BF90EA020F0020704710F15A
:1005F000000F91EA030F58BF994208BF90422CBFE9
:10060000D8176FEAE37040F0010070474FEA410CE1
:100610007FEA6C5C02D150EA013C07D14FEA430CFF
:100620007FEA6C5CD6D152EA033CD3D05DF8040B70
:10063000704700BF8446104662468C4619466346A2
:1006400000E000BF01B5FFF7B7FF002848BF10F179
:10065000000F01BD4DF808EDFFF7F4FF0CBF0120BE
:1006600000205DF808FB00BF4DF808EDFFF7EAFF3A
:1006700034BF012000205DF808FB00BF4DF808EDF5
:10068000FFF7E0FF94BF012000205DF808FB00BFEA
:100690004DF808EDFFF7CEFF94BF012000205DF874
:1006A00008FB00BF4DF808EDFFF7C4FF34BF012081
:1006B00000205DF808FB00BF4A0011D212F50012BD
:1006C00011D20DD56FF47873B3EB62520ED44FEAAA
:1006D000C12343F0004343EA505323FA02F070472A
:1006E0004FF00000704750EA013002D14FF0FF3068
:1006F00070474FF000007047844641EA000313F052
:10070000030349D1403A23D30B6803604B6843602D
:100710008B688360CB68C3600B6903614B6943617D
:100720008B698361CB69C3610B6A03624B6A436265
:100730008B6A8362CB6AC3620B6B03634B6B43634D
:100740008B6B8363CB6BC36340304031403ADBD269
:1007500030320BD30B6803604B6843608B68836057
:10076000CB68C36010301031103AF3D20C3205D38D
:1007700051F8043B40F8043B043AF9D2043208D063
:10078000D2071CBF11F8013B00F8013B01D30B88D5
:1007900003806046704700BF082A13D38B07B1D08F
:1007A00010F00303AED0C3F10403D21ADB071CBF61
:1007B00011F8013B00F8013BA4D331F8023B20F8CB
:1007C000023B9FE7043AD9D3013A11F8013B00F804
:1007D000013BF9D20B7803704B7843708B788370B0
:1007E0006046704770B54FF0FF0C4CF4E06C1CEAAB
:1007F00011541DBF1CEA135594EA0C0F95EA0C0F17
:1008000000F0DEF82C4481EA030621EA4C5123EA89
:100810004C5350EA013518BF52EA033541F48011B8
:1008200043F4801338D0A0FB02CE4FF00005E1FB6B
:1008300002E506F00042E0FB03E54FF00006E1FBB5
:1008400003569CF0000F18BF4EF0010EA4F1FF04F8
:10085000B6F5007F64F5407404D25FEA4E0E6D4138
:1008600046EB060642EAC62141EA55514FEAC52049
:1008700040EA5E504FEACE2EB4F1FD0C88BFBCF5C5
:10088000E06F1ED8BEF1004F08BF5FEA500E50F176
:10089000000041EB045170BD06F0004646EA01013C
:1008A00040EA020081EA0301B4EB5C04C2BFD4EB6E
:1008B0000C0541EA045170BD41F480114FF0000E67
:1008C000013C00F3AB8014F1360FDEBF002001F0D5
:1008D000004170BDC4F10004203C35DA0C341BDC4F
:1008E00004F11404C4F1200500FA05F320FA04F021
:1008F00001FA05F240EA020001F0004221F0004155
:1009000010EBD37021FA04F642EB06015EEA430EC7
:1009100008BF20EAD37070BDC4F10C04C4F12005F7
:1009200000FA04F320FA05F001FA04F240EA0200AA
:1009300001F0004110EBD37041F100015EEA430E7B
:1009400008BF20EAD37070BDC4F1200500FA05F29B
:100950004EEA020E20FA04F301FA05F243EA02031A
:1009600021FA04F001F0004121FA04F220EA020029
:1009700000EBD3705EEA430E08BF20EAD37070BD6F
:1009800094F0000F0FD101F00046400041EB01014F
:1009900011F4801F08BF013CF7D041EA060195F031
:1009A000000F18BF704703F00046520043EB0303EB
:1009B00013F4801F08BF013DF7D043EA06037047D8
:1009C00094EA0C0F0CEA135518BF95EA0C0F0CD0E3
:1009D00050EA410618BF52EA4306D1D181EA030129
:1009E00001F000414FF0000070BD50EA410606BF23
:1009F0001046194652EA430619D094EA0C0F02D168
:100A000050EA013613D195EA0C0F05D152EA0336AC
:100A10001CBF104619460AD181EA030101F00041CA
:100A200041F0FE4141F470014FF0000070BD41F013
:100A3000FE4141F4780170BD70B54FF0FF0C4CF4ED
:100A4000E06C1CEA11541DBF1CEA135594EA0C0F0C
:100A500095EA0C0F00F0A7F8A4EB050481EA030E59
:100A600052EA03354FEA013100F088804FEA033340
:100A70004FF0805545EA131343EA12634FEA02220E
:100A800045EA111545EA10654FEA00260EF00041CF
:100A90009D4208BF964244F1FD0404F5407402D221
:100AA0005B084FEA3202B61A65EB03055B084FEAB2
:100AB00032024FF480104FF4002CB6EB020E75EBAF
:100AC000030E22BFB61A754640EA0C005B084FEAD7
:100AD0003202B6EB020E75EB030E22BFB61A754654
:100AE00040EA5C005B084FEA3202B6EB020E75EB9F
:100AF000030E22BFB61A754640EA9C005B084FEA17
:100B00003202B6EB020E75EB030E22BFB61A754623
:100B100040EADC0055EA060E18D04FEA051545EA12
:100B200016754FEA06164FEAC30343EA52734FEABB
:100B3000C2025FEA1C1CC0D111F4801F0BD141EA34
:100B400000014FF000004FF0004CB6E711F4801F99
:100B500004BF01430020B4F1FD0C88BFBCF5E06F79
:100B60003FF6AFAEB5EB030C04BFB6EB020C5FEA89
:100B7000500C50F1000041EB045170BD0EF0004EDE
:100B80004EEA113114EB5C04C2BFD4EB0C0541EA10
:100B9000045170BD41F480114FF0000E013C90E60D
:100BA00045EA060E8DE60CEA135594EA0C0F08BFD1
:100BB00095EA0C0F3FF43BAF94EA0C0F0AD150EAD0
:100BC00001347FF434AF95EA0C0F7FF425AF104663
:100BD00019462CE795EA0C0F06D152EA03353FF48B
:100BE000FDAE1046194622E750EA410618BF52EA08
:100BF00043067FF4C5AE50EA41047FF40DAF52EADC
:100C000043057FF4EBAE12E74FEA410C7FEA6C5CE0
:100C100002D150EA013C0AD14FEA430C7FEA6C5CF6
:100C200002D152EA033C02D14FF0000070474FF06E
:100C3000010070474FEA410212F5001215D211D59A
:100C40006FF47873B3EB625212D94FEAC12343F0C9
:100C5000004343EA505311F0004F23FA02F018BF4B
:100C6000404270474FF00000704750EA013005D114
:100C700011F0004008BF6FF0004070474FF00000D7
:100C8000704700BF53B94AB9002908BF00281CBFEC
:100C90004FF0FF314FF0FF3000F076B9ADF1080CA6
:100CA0006DE904CE00F006F8DDF804E0DDE902238A
:100CB00004B070472DE9F047089E0D46044688466B
:100CC000002B4DD18A42944668D9B2FA82F252B1D1
:100CD00001FA02F3C2F1200120FA01F10CFA02FC40
:100CE00041EA030894404FEA1C41B8FBF1F71FFAB0
:100CF0008CFE01FB178807FB0EF0230C43EA084328
:100D000098420AD91CEB030307F1FF3580F01E81DE
:100D1000984240F21B81023F63441B1AB3FBF1F07F
:100D200001FB103300FB0EFEA4B244EA0344A645C7
:100D30000AD91CEB040400F1FF3380F00981A645B9
:100D400040F20681644402380021A4EB0E0440EA1C
:100D500007401EB10023D440C6E90043BDE8F08738
:100D60008B4208D9002E00F0EE800021C6E9000574
:100D70000846BDE8F087B3FA83F100294AD1AB42B7
:100D800002D3824200F2FC80841A65EB0303012047
:100D90009846002EE2D0C6E90048DFE702B9FFDE40
:100DA000B2FA82F2002A40F09180A1EB0C000121FE
:100DB0004FEA1C471FFA8CFEB0FBF7F307FB13004A
:100DC000250C45EA00450EFB03F0A84208D91CEBB0
:100DD000050503F1FF3802D2A84200F2CE80434657
:100DE0002D1AB5FBF7F007FB10550EFB00FEA4B261
:100DF00044EA0544A64508D91CEB040400F1FF357C
:100E000002D2A64500F2B6802846A4EB0E0440EAC2
:100E100003409EE7C1F120078B4022FA07FC4CEA11
:100E2000030C25FA07FA4FEA1C49BAFBF9F820FA35
:100E300007F309FB18AA8D401FFA8CFE1D4300FA28
:100E400001F308FB0EF02C0C44EA0A44A04202FA1B
:100E500001F20BD91CEB040408F1FF3A80F0888002
:100E6000A04240F28580A8F102086444241AB4FB31
:100E7000F9F009FB104400FB0EFEADB245EA044454
:100E8000A64508D91CEB040400F1FF356CD2A64539
:100E90006AD90238644440EA0840A0FB0295A4EBFA
:100EA0000E04AC42C846AE4656D353D0002E69D08D
:100EB000B3EB080264EB0E0422FA01F304FA07F71D
:100EC0001F43CC40C6E90074002147E70CFA02FC3E
:100ED000C2F1200125FA01F34FEA1C4720FA01F183
:100EE00095400D43B3FBF7F107FB11331FFA8CFE5E
:100EF000280C40EA034001FB0EF3834204FA02F49B
:100F000008D91CEB000001F1FF382FD283422DD904
:100F100002396044C01AB0FBF7F307FB1300ADB20F
:100F200045EA004503FB0EF0A84208D91CEB050575
:100F300003F1FF3816D2A84214D9023B6544281A9F
:100F400043EA014138E73146304607E72F46E4E6F9
:100F50001846F9E64B45A9D2B9EB020865EB0C0E31
:100F60000138A3E74346EAE7284694E74146D1E73C
:100F7000D0467BE76444023847E7023B65442FE7ED
:100F8000084606E73146E9E6704700BF00B583B082
:100F90000E4B5A6942F001025A615B6903F001038A
:100FA0000193019B002205210F2000F01BFE0F2062
:100FB00000F050FE00220521102000F013FE10204A
:100FC00000F048FE03B05DF804FB00BF00100240D3
:100FD00084B0134B9A6942F020029A619A6902F038
:100FE00020020092009A9A6942F004029A619A697A
:100FF00002F004020192019A9A6942F008029A6191
:101000009A6902F008020292029A9A6942F010026A
:101010009A619B6903F010030393039B04B070472C
:101020000010024010B504460268074B9A4204D0F3
:101030002268064B9A4203D010BD00F09BFDF7E7F3
:1010400000F0DEFCF8E700BF001000400014004094
:1010500072B6FEE700B591B02822002106A802F082
:10106000F5FE002301930293039304930593012259
:1010700006924FF4803307930A9202220D920E9348
:101080004FF4E0130F9306A801F0C4F980B90F23C1
:10109000019302210291002303934FF48062049292
:1010A000059301A801F0E8FB20B911B05DF804FB3D
:1010B000FFF7CEFFFFF7CCFF00B595B000F048FD7D
:1010C000FFF7C8FFFFF784FFFFF760FF00F010FB9A
:1010D00000F028FB00F096FA00F04CF900F0A4F9BB
:1010E00000F07AF900F0DEFB0421204802F038F924
:1010F00004211F4802F034F91E4C0021204602F062
:10110000B5F80421204602F0B1F80821204602F08B
:10111000ADF80C21204602F0A9F8174801F068FD4F
:1011200023684FF461725A63002104913C2205A8A0
:1011300002F08CFE114BD3E91401D3E90623CDE96B
:101140000223CDE900010E4A402104A802F0D0FE9E
:1011500004A802F00FFF642382B204A9094802F038
:10116000C1FA642000F018FDDEE700BF680A002025
:10117000F80A0020200A0020B00A0020580C0020A5
:10118000689E0008C80B002000B583B0114B9A6917
:1011900042F001029A619A6902F001020092009AFB
:1011A000DA6942F08052DA61DB6903F0805301931F
:1011B000019B00220F216FF0010000F013FD064A91
:1011C000536823F0E06343F00073536003B05DF8AD
:1011D00004FB00BF001002400000014000B589B0D0
:1011E00001460022362000F0FDFC362000F032FDE2
:1011F000154BDA6942F01002DA61DB6903F0100383
:101200000193019B02A903A801F012FC01F0F0FB7D
:1012100043000E48A0FB03239B0C013B0C480D4AE6
:10122000026040F2E732C2604360002303618360E2
:1012300001F028FE18B1012009B05DF804FB044854
:1012400001F0D6FCF8E700BF0010024083DE1B432C
:10125000D409002000100040FEE7FEE7FEE7FEE7AD
:10126000FEE7704708B5024800F028FE08BD00BF41
:10127000400B002008B5024800F020FE08BD00BF6A
:10128000840B002008B5024802F018FB08BD00BF1F
:10129000C80B002008B5024801F0EBFC08BD00BFF8
:1012A000D409002008B5024801F0E3FC08BD00BFE6
:1012B000B00A00200120704708B502F09DFD1623FA
:1012C00003604FF0FF3008BD08B54FF0FF31FFF766
:1012D000F3FFFEE770B50C461646002506E0AFF3B7
:1012E0000080214601F8010B01350C46B542F6DBC2
:1012F000304670BD70B50C461646002504E014F863
:10130000010BAFF300800135B542F8DB304670BD0C
:101310004FF0FF3070474FF400534B600020704790
:10132000012070470020704710B503460C4A0D4954
:101330000D48006840B10C4800680344521A9342BB
:1013400006D8094A136010BD0748084C0460F2E74C
:1013500002F052FD0C2303604FF0FF30F3E700BFB3
:1013600000C00020000400001C0A0020E011002042
:101370007047000000B58DB02422002103A802F0C0
:1013800065FD0023019302931148124A02604360F5
:1013900083604FF6FF72C26003618361032303938E
:1013A00001230593099303A901F0C4FD50B900235B
:1013B0000193029301A9064802F038F828B90DB04C
:1013C0005DF804FBFFF744FEF1E7FFF741FEF6E7A7
:1013D000680A00200008004000B583B00023009395
:1013E00001930F480F4A026047224260836040F237
:1013F000E732C260836101F045FD50B900230093DC
:1014000001936946064802F011F828B903B05DF867
:1014100004FBFFF71DFEF1E7FFF71AFEF6E700BF3A
:10142000B00A00200014004000B58DB02422002135
:1014300003A802F00BFD0023019302931248134A04
:101440000260436083604FF6FF72C26003614361D4
:1014500083610323039301230593099303A901F0F7
:1014600069FD50B900230193029301A9064801F0D8
:10147000DDFF28B90DB05DF804FBFFF7E9FDF1E7EA
:10148000FFF7E6FDF6E700BFF80A00200034014050
:1014900000B583B00368134A934205D0124A9342C1
:1014A0000DD003B05DF804FB104BDA6942F0020284
:1014B000DA61DB6903F002030093009BF1E70B4B59
:1014C000DA6942F02002DA61DB6903F0200301935C
:1014D000019B00220521372000F084FB372000F01B
:1014E000B9FBDEE700040040001400400010024099
:1014F00000B589B00023049305930693079303680E
:101500001E4A934205D01E4A93421CD009B05DF892
:1015100004FB1C4BDA6942F00402DA61DA6902F07A
:1015200004020092009A9A6942F008029A619B694B
:1015300003F008030193019BC023049304A91248FC
:1015400000F032FEE2E70F4B9A6942F400529A61D2
:101550009A6902F400520292029A9A6942F01002C9
:101560009A619B6903F010030393039BC0230493C8
:1015700004A9064800F018FEC8E700BF00080040B4
:101580000034014000100240000C014000100140F6
:1015900010B586B000230293039304930593026869
:1015A000154B9A4201D006B010BD03F503339A697A
:1015B00042F004029A619A6902F004020092009AD1
:1015C0009A6942F008029A619B6903F0080301934B
:1015D000019BC023029302240394059402A90748A7
:1015E00000F0E2FD032302930394059402A904484A
:1015F00000F0DAFDD7E700BF00040040000801401A
:10160000000C014000B58FB000230A930B930C939C
:101610000D93089309930193029303930493059305
:10162000069307933048314A02600122426083608A
:1016300040F2AF42C2600361836101F023FC0028E5
:1016400039D14FF480530A930AA9274801F080FD4D
:10165000002833D1244801F041FC002831D1002377
:101660000893099308A9204801F0E0FE60BB6023BD
:101670000193002202920392059201A91A4801F0F7
:10168000EDFC20BB04220DEB0201174801F0E6FC43
:1016900000BB082201A9144801F0E0FCE8B90C22C3
:1016A00001A9114801F0DAFCD0B90F48FFF770FF2B
:1016B0000FB05DF804FBFFF7CBFCC2E7FFF7C8FCF7
:1016C000C8E7FFF7C5FCCAE7FFF7C2FCCFE7FFF7A3
:1016D000BFFCD7E7FFF7BCFCDBE7FFF7B9FCDEE7B1
:1016E000FFF7B6FCE1E700BF200A0020000400403D
:1016F00008B50A480A4B03604FF4E1334360002306
:101700008360C36003610C2242618361C36101F0A5
:10171000B9FF00B908BDFFF79BFCFBE7C80B002031
:101720000038014008B50A480A4B03604FF4E13322
:10173000436000238360C36003610C2242618361C4
:10174000C36101F09FFF00B908BDFFF781FCFBE713
:10175000100C00200044004070B588B004460023FF
:1017600004930593069307930368464A934204D073
:10177000454A934248D008B070BD444B9A6942F440
:1017800080429A619A6902F480420092009A9A69B2
:1017900042F004029A619B6903F004030193019BE8
:1017A0004FF4007304930223059303230793384EE9
:1017B00004A9304600F0F8FC4FF480630493002540
:1017C0000595069504A9304600F0EEFC3148324BF1
:1017D0000360456085608023C36005614561202307
:1017E0008361C56100F044FA58B92A4BE3635C6237
:1017F00000220521252000F0F5F9252000F02AFA25
:10180000B9E7FFF725FCF0E7204BDA6942F4003234
:10181000DA61DA6902F400320292029A9A6942F0BD
:1018200004029A619B6903F004030393039B04235E
:1018300004930223059303230793154E04A930460E
:1018400000F0B2FC0823049300250595069504A931
:10185000304600F0A9FC1148114B036045608560DB
:101860008023C3600561456120238361C56100F069
:10187000FFF918B9094BE3635C627CE7FFF7E8FB0B
:10188000F8E700BF0038014000440040001002406B
:1018900000080140400B002058000240840B00204B
:1018A0006C0002402DE9F003DFF854C00026154F0C
:1018B000CCE900670024144DCCE902450022002346
:1018C000CCE90423CCE9082300201049CCE910011D
:1018D0004FF00008DFF83890CCE91289DFF834C007
:1018E000CCE90067CCE90245CCE90423CCE9082324
:1018F000CCE91001CCE91289BDE8F003704700BFC4
:10190000580C002000008E4000006E4000C092C0C5
:1019100000C09240B00C00202DE9F0478246D0E98B
:101920000C23C0E90E23D0E90A23C0E90C2300F1FF
:101930002001D1E90001DAE90623FEF77DFCCAE9BE
:101940000A01DAE90045DAE90A01DAE90C23FEF7CF
:1019500073FC02460B4620462946FEF743FF044629
:101960000D46DAE90201DAE90A23FEF73BFF0246F7
:101970000B4620462946FEF761FC04460D46DAE98F
:101980000467DAE90A89DAE90C0102460B46FEF738
:1019900055FC02460B4640464946FEF74DFCDAE947
:1019A0000E23FEF74BFC02460B4630463946FEF747
:1019B00019FF02460B4620462946FEF73FFC024629
:1019C0000B46DAE91401FEF739FCCAE91401DAE939
:1019D0001401DAE91223FEF765FE18B1DAE91223E1
:1019E000CAE91423DAE91401DAE91023FEF73CFE10
:1019F00018B1DAE91023CAE91423BDE8F087000022
:101A0000F8B53B4B1D68686A00B2FEF763FD394CC0
:101A1000C4E9060100276F62374B1E68706A00B286
:101A2000FEF758FD354DC5E9060177622046FFF700
:101A300073FF2846FFF770FF00220023D4E914014A
:101A4000FEF730FED8B12E4B1C682A4BD3E91401A7
:101A5000FEF732FEE0632764002200232749D1E924
:101A60001401FEF71FFE30B3254B1C68234BD3E94E
:101A70001401FEF721FE60630023A363F8BD00227A
:101A800000231C49D1E91401FEF7EEFD28B91C4BD7
:101A90001B680022DA631A64DEE7194B1C68002316
:101AA000E363144BD3E91456284606F10041FEF7D0
:101AB00003FE2064D0E7002200231049D1E914017D
:101AC000FEF7D2FD28B90E4B1B6800225A639A63B9
:101AD000D4E70B4B1C6800236363084BD3E914560F
:101AE000284606F10041FEF7E7FDA063C6E700BF08
:101AF000F80A0020580C0020680A0020B00C0020D2
:101B0000200A0020FFF734FC0B480C490C4A002344
:101B100002E0D458C4500433C4188C42F9D3094AA3
:101B2000094C002301E013600432A242FBD302F00F
:101B300069F9FFF7C1FA704700000020B8090020DA
:101B400074A20008B8090020DC110020FEE70000A4
:101B500008B5074A136843F010031360032000F030
:101B60002FF80F20FFF73AFBFFF70EFB002008BD10
:101B700000200240034A1168034B1B780B4413609A
:101B8000704700BF080D002004000020014B1868BA
:101B9000704700BF080D002038B50446FFF7F6FF78
:101BA0000546B4F1FF3F02D0044B1B781C44FFF7FD
:101BB000EDFF401BA042FAD338BD00BF0400002057
:101BC000074AD36823F4E0631B041B0C000200F4F3
:101BD000E060034343F0BF6343F40033D3607047D6
:101BE00000ED00E000B5194BDB68C3F30223C3F13D
:101BF000070CBCF1040F28BF4FF0040C03F1040ED6
:101C0000BEF1060F18D9033B4FF0FF3E0EFA0CFC55
:101C100021EA0C0199400EFA03F322EA0303194367
:101C200000280BDB0901C9B200F1604000F56140FA
:101C300080F800135DF804FB0023E5E700F00F00D7
:101C40000901C9B2024B1954F4E700BF00ED00E0EE
:101C500014ED00E0002807DB00F01F02400901231B
:101C60009340024A42F82030704700BF00E100E094
:101C700000283AD010B4024600681D4B984229D87B
:101C80001C4B03441C49A1FB03131B099B00136459
:101C90001A4BD363022382F82130016821F47F516B
:101CA00021F03001536894682343D46823431469B6
:101CB00023435469234394692343D46923430B4347
:101CC000036000209063012382F8213082F8200015
:101CD00010BC70470A4B03440749A1FB03131B09BF
:101CE0009B001364074BD363D4E70120704700BF08
:101CF00007040240F8FFFDBFCDCCCCCC0000024071
:101D0000F8FBFDBF0004024090F82130DBB2022B4B
:101D100006D004238363002380F82030012070471D
:101D20000268136823F00E0313600268136823F03F
:101D300001031360036CC16B012202FA03F34B60D1
:101D400080F82120002380F82030184670470000DA
:101D500008B590F82130DBB2022B03D00423836353
:101D6000012008BD0268136823F00E0313600268A7
:101D7000136823F00103136003684C4A93424ED961
:101D8000783A934224D01432934230D014329342A2
:101D90002FD0143293422FD0143293422FD01432CA
:101DA00093422FD0143293422FD002F562729342A5
:101DB0002ED0143293422DD0143293422CD01432B0
:101DC000934202D04FF4803203E04FF4805200E09F
:101DD0000122374B5A60012380F82130002380F81C
:101DE0002030436B002B5ED098470020B9E71022CB
:101DF000EFE74FF48072ECE74FF48052E9E74FF4DD
:101E00008032E6E74FF48012E3E74FF08072E0E7BC
:101E10000122DEE71022DCE74FF48072D9E7254A81
:101E2000934224D01432934225D01432934224D0CA
:101E30001432934224D01432934224D01432934269
:101E400024D01432934224D002F56272934223D0FC
:101E50001432934222D01432934221D0143293424E
:101E600002D04FF4803203E04FF4805200E00122B0
:101E7000114B5A60AFE71022FAE74FF48072F7E790
:101E80004FF48052F4E74FF48032F1E74FF48012C0
:101E9000EEE74FF08072EBE70122E9E71022E7E777
:101EA0004FF48072E4E700205BE700BF800002404F
:101EB00000040240080002400000024038B5C36B35
:101EC0001A6804682568016C04238B40134200F0F3
:101ED0009B8015F0040F00F09780236813F0200F0B
:101EE00003D1236823F00403236003689A4A9342D2
:101EF00046D9783A934224D01432934228D01432EF
:101F0000934227D01432934227D01432934227D0E1
:101F10001432934227D01432934227D002F56272D2
:101F2000934226D01432934225D01432934224D0C7
:101F30001432934202D04FF4802203E04FF48042E7
:101F400000E00422854B5A60C36A03B1984738BD4C
:101F50004022F7E74FF48062F4E74FF48042F1E764
:101F60004FF48022EEE74FF48002EBE74FF08062FF
:101F7000E8E70422E6E74022E4E74FF48062E1E785
:101F8000774A934224D01432934225D0143293429C
:101F900024D01432934224D01432934224D01432E9
:101FA000934224D01432934224D002F562729342B9
:101FB00023D01432934222D01432934221D01432CF
:101FC000934202D04FF4802203E04FF4804200E0BD
:101FD0000422644B5A60B7E74022FAE74FF480626C
:101FE000F7E74FF48042F4E74FF48022F1E74FF433
:101FF0008002EEE74FF08062EBE70422E9E740223F
:10200000E7E74FF48062E4E702238B40134200F0DD
:10201000AB8015F0020F00F0A780236813F0200FAB
:1020200006D1236823F00A032360012380F82130BE
:102030000368494A93424BD9783A934224D01432E8
:1020400093422DD0143293422CD0143293422CD090
:10205000143293422CD0143293422CD01432934237
:102060002CD002F5627293422BD0143293422AD0C4
:102070001432934229D01432934202D04FF40032EA
:1020800003E04FF4005200E00222344B5A60002378
:1020900080F82030836A002B3FF459AF984756E709
:1020A0002022F2E74FF40072EFE74FF40052ECE722
:1020B0004FF40032E9E74FF40012E6E74FF0007208
:1020C000E3E70222E1E72022DFE74FF40072DCE7DA
:1020D000234A934224D01432934225D0143293429F
:1020E00024D01432934224D01432934224D0143298
:1020F000934224D01432934224D002F56272934268
:1021000023D01432934222D01432934221D014327D
:10211000934202D04FF4003203E04FF4005200E04B
:102120000222104B5A60B2E72022FAE74FF4007205
:10213000F7E74FF40052F4E74FF40032F1E74FF4C1
:102140000012EEE74FF00072EBE70222E9E72022EF
:10215000E7E74FF40072E4E7800002400004024029
:102160000800024000000240082303FA01F1114276
:102170003FF4EDAE15F0080F3FF4E9AE236823F00D
:102180000E032360026CC16B012303FA02F24A6062
:10219000836380F82130002380F82030036B002B0C
:1021A0003FF4D5AE9847D2E670B582B00024A4467D
:1021B000B0E0874DAA4210D007D9864DAA420CD074
:1021C00005F58035AA4208D013E0A5F58015AA428E
:1021D00003D005F57025AA4207D18A68002A62D08B
:1021E000012A5BD04361082403E0A5F58015AA42CB
:1021F000F3D0BEF1FF0F58D80646BEF1FF0F56D8F8
:102200004FEA8C0233680F25954023EA050304FA50
:1022100002F2134333604B6813F0805F78D06E4B4B
:102220009A6942F001029A619B6903F001030193EC
:10223000019B4FEA9C02951C684B53F825600CF0FB
:1022400003039D000F23AB4026EA0306644B98422C
:1022500033D003F58063984200F0988003F58063E3
:10226000984200F0958003F58063984200F09280D8
:1022700003F58063984200F08F8003F580639842F5
:1022800019D006231AE0CC68B3E7CC680434B0E771
:10229000CC680834ADE7CC680C34AAE703610824A5
:1022A000A7E70024A5E70424A3E7061DA5E7ACF1F2
:1022B00008029200A6E7052300E00023AB40334369
:1022C0000232464D45F822304B6813F4801F65D02A
:1022D000444A936843EA0E0393604B6813F4001F6B
:1022E00062D0404AD36843EA0E03D3604B6813F4CC
:1022F000003F5FD03B4A536843EA0E0353604B688C
:1023000013F4803F5CD0374A136843EA0E0313602E
:102310000CF1010C0A6832FA0CF357D0012303FACE
:102320000CF302EA030E33EA0202F1D14A68122AE0
:102330003FF63FAF122A3FF65CAF01A555F822F0F9
:10234000DB2100088722000891220008A322000850
:10235000F3210008F3210008F3210008F32100080D
:10236000F3210008F3210008F3210008F3210008FD
:10237000F3210008F3210008F3210008F3210008ED
:10238000F32100088B22000897220008012395E71B
:10239000022393E7032391E704238FE7114A93680D
:1023A00023EA0E03936098E70E4AD36823EA0E03EC
:1023B000D3609BE70B4A536823EA0E0353609EE702
:1023C000084A136823EA0E031360A1E702B070BD48
:1023D00000002210000031100010024000000140F7
:1023E000000801400004014082B0084B1B68084A05
:1023F000A2FB03235B0A00FB03F3019300BF019BD5
:102400005A1E0192002BF9D102B070470000002043
:10241000D34D6210002800F0F18170B582B00446FF
:10242000036813F0010F2CD0994B5B6803F00C0389
:10243000042B1DD0964B5B6803F00C03082B12D0C5
:102440006368B3F5803F41D0002B55D103F1804341
:1024500003F504331A6822F480321A601A6822F4F1
:1024600080221A6037E08A4B5B6813F4803FE7D024
:10247000874B1B6813F4003F03D06368002B00F008
:10248000BF81236813F0020F75D0814B5B6813F096
:102490000C0F5FD07E4B5B6803F00C03082B54D00D
:1024A0002369002B00F08A807A4B01221A60FFF723
:1024B0006DFB0546764B1B6813F0020F75D1FFF7D5
:1024C00065FB401B0228F5D903209EE1704A136882
:1024D00043F480331360636843B3FFF757FB05464B
:1024E0006B4B1B6813F4003FCBD1FFF74FFB401B36
:1024F0006428F5D9032088E1B3F5A02F09D0644BF7
:102500001A6822F480321A601A6822F480221A6053
:10251000E1E703F18043A3F53C331A6842F48022DB
:102520001A601A6842F480321A60D4E7FFF72EFB73
:102530000546574B1B6813F4003FA2D0FFF726FB5C
:10254000401B6428F5D903205FE1514B5B6813F40D
:10255000803FA5D14E4B1B6813F0020F03D02369B7
:10256000012B40F04F814A4A136823F0F803616958
:1025700043EAC1031360236813F0080F33D0A36943
:10258000002B5CD0434B0122C3F88024FFF7FEFAF6
:1025900005463F4B5B6A13F0020F21D1FFF7F6FAB5
:1025A000401B0228F5D903202FE1394A136823F094
:1025B000F803616943EAC1031360DCE7354B00228D
:1025C0001A60FFF7E3FA0546314B1B6813F0020F60
:1025D000D1D0FFF7DBFA401B0228F5D9032014E124
:1025E0000120FFF701FF236813F0040F00F096802D
:1025F000274BDB6913F0805F34D1254BDA6942F059
:102600008052DA61DB6903F080530193019B01255D
:10261000214B1B6813F4807F26D0E368012B3DD04B
:10262000002B53D103F1804303F504331A6A22F0DF
:1026300001021A621A6A22F004021A6233E0154B90
:102640000022C3F88024FFF7A1FA0546104B5B6A0D
:1026500013F0020FC7D0FFF799FA401B0228F5D9F3
:102660000320D2E00025D3E70B4A136843F48073BC
:102670001360FFF78BFA0646074B1B6813F4807F45
:10268000CBD1FFF783FA801B6428F5D90320BCE087
:102690000010024000004242007000405F4A136A8E
:1026A00043F001031362E36833B3FFF76FFA0646A2
:1026B0005A4B1B6A13F0020F2FD1FFF767FA801BEA
:1026C00041F288339842F3D903209EE0052B09D0CC
:1026D000524B1A6A22F001021A621A6A22F00402AC
:1026E0001A62E0E74D4B1A6A42F004021A621A6A53
:1026F00042F001021A62D6E7FFF748FA0646474B56
:102700001B6A13F0020F08D0FFF740FA801B41F25A
:1027100088339842F3D9032077E0E5B9E369002BC9
:1027200072D03E4A526802F00C02082A56D0022BA0
:1027300017D03B4B00221A66FFF728FA0446374BA6
:102740001B6813F0007F47D0FFF720FA001B022818
:10275000F5D9032059E0314AD36923F08053D3617E
:10276000DCE72F4B00221A66FFF710FA05462B4BC9
:102770001B6813F0007F06D0FFF708FA401B022801
:10278000F5D9032041E0236AB3F5803F1AD02349ED
:102790004B6823F47413226A606A024313434B604C
:1027A0001F4B01221A66FFF7F1F904461B4B1B6809
:1027B00013F0007F0ED1FFF7E9F9001B0228F5D9CD
:1027C000032022E0154A536823F40033A1680B4329
:1027D0005360DCE7002018E0002016E0012B16D043
:1027E0000E4B5B6803F48031226A914211D103F4ED
:1027F0007013626A93420ED1002006E001207047F8
:10280000012002E0012000E0002002B070BD0120A4
:10281000FBE70120F9E70120F7E700BF00100240C5
:10282000000042420F4B5B6803F00C02082A01D003
:102830000D487047C3F383420C49885C13F4803F12
:102840000BD0084B5B68C3F34043094AD35C064A8C
:1028500002FB00F0B0FBF3F07047064B03FB00F007
:10286000704700BF0010024000127A00989E0008D6
:10287000A89E000800093D00002800F0A08070B567
:102880000D460446524B1B6803F007038B420BD2E4
:102890004F4A136823F007030B431360136803F0D8
:1028A00007038B4240F08D80236813F0020F17D08E
:1028B00013F0040F04D0474A536843F4E0635360B5
:1028C000236813F0080F04D0424A536843F460535E
:1028D0005360404A536823F0F003A1680B435360F0
:1028E000236813F0010F31D06368012B20D0022B35
:1028F00025D0384A126812F0020F64D035494A6870
:1029000022F0030213434B60FFF740F90646314BB8
:102910005B6803F00C036268B3EB820F16D0FFF71D
:1029200035F9801B41F288339842F0D9032045E005
:10293000284A126812F4003FE0D101203EE0254A07
:10294000126812F0007FD9D1012037E0204B1B68BC
:1029500003F00703AB420AD91D4A136823F00703AB
:102960002B431360136803F00703AB422DD1236898
:1029700013F0040F06D0174A536823F4E063E168AC
:102980000B435360236813F0080F07D0114A5368B4
:1029900023F46053216943EAC1035360FFF742FF08
:1029A0000C4B5B68C3F303130B4AD35CD8400B4B4F
:1029B00018600B4B1868FEF711FC002070BD012059
:1029C00070470120FAE70120F8E70120F6E700BF91
:1029D0000020024000100240809E000800000020FD
:1029E00008000020014B1868704700BF000000205D
:1029F00008B5FFF7F7FF044B5B68C3F30223034AF4
:102A0000D35CD84008BD00BF00100240909E000873
:102A100008B5FFF7E7FF044B5B68C3F3C223034A23
:102A2000D35CD84008BD00BF00100240909E000853
:102A30000F2303600B4B5A6802F0030242605A688E
:102A400002F0F00282605A6802F4E062C2605B68E1
:102A5000DB0803F4E0630361034B1B6803F0070327
:102A60000B607047001002400020024030B4036A3F
:102A7000026A22F0010202624268846924F073044F
:102A80000D682C4323F0020C8B6843EA0C03104DB5
:102A9000A84203D005F50065A84205D123F008033C
:102AA000CD682B4323F00403094DA84203D005F55C
:102AB0000065A84205D122F440724D692A438D6910
:102AC0002A43426084614A684263036230BC7047B3
:102AD000002C014030B4036A026A22F48072026260
:102AE0004268C46924F0730C0C6844EA0C0523F4B2
:102AF00000738C6843EA0423114CA04203D004F510
:102B00000064A04206D123F40063CC6843EA0423A6
:102B100023F480630A4CA04203D004F50064A04271
:102B200007D122F440524C6942EA04128C6942EA0D
:102B300004124260C5614A68C263036230BC7047D8
:102B4000002C014030B4036A026A22F4805202620F
:102B50004468C26922F4E6420D6842EA052223F481
:102B600000538D6843EA0533094DA84203D005F5AB
:102B70000065A84204D124F480444D6944EA8514D8
:102B80004460C2614A680264036230BC704700BF9F
:102B9000002C014010B4036A046A24F001040462AA
:102BA000846924F0F00C4CEA021223F00A030B4370
:102BB0008261036210BC704710B4036A046A24F097
:102BC00010040462846924F4704C4CEA023223F04D
:102BD000A00343EA01138261036210BC704783685B
:102BE00023F070030B4343F007038360704700003A
:102BF00090F83D30DBB2012B2FD1022380F83D301D
:102C00000268D36843F00103D3600368154A934216
:102C100018D002F50062934214D0B3F1804F11D066
:102C2000A2F5983293420DD002F58062934209D00A
:102C300002F58062934205D01A6842F001021A60E0
:102C4000002070479A6802F00702062A07D01A6827
:102C500042F001021A6000207047012070470020F6
:102C6000704700BF002C01407047704770477047A5
:102C7000704710B5044603681A6912F0020F11D0AC
:102C8000DA6812F0020F0DD06FF002021A61012310
:102C9000037703689B6913F0030F70D0FFF7E6FF1B
:102CA0000023237723681A6912F0040F12D0DA6820
:102CB00012F0040F0ED06FF004021A610223237782
:102CC00023689B6913F4407F5FD02046FFF7CEFF57
:102CD0000023237723681A6912F0080F12D0DA68EC
:102CE00012F0080F0ED06FF008021A610423237748
:102CF0002368DB6913F0030F4ED02046FFF7B6FFC1
:102D00000023237723681A6912F0100F12D0DA68B3
:102D100012F0100F0ED06FF010021A610823237703
:102D20002368DB6913F4407F3DD02046FFF79EFF08
:102D30000023237723681A6912F0010F03D0DA68A1
:102D400012F0010F36D123681A6912F0800F03D0F8
:102D5000DA6812F0800F34D123681A6912F0400F3C
:102D600003D0DA6812F0400F32D123681A6912F0EA
:102D7000200F03D0DA6812F0200F30D110BDFFF71A
:102D800074FF2046FFF773FF8AE72046FFF76DFFC9
:102D90002046FFF76CFF9BE72046FFF766FF2046C3
:102DA000FFF765FFACE72046FFF75FFF2046FFF720
:102DB0005EFFBDE76FF001021A612046FEF732F9AF
:102DC000C1E76FF080021A61204600F06EFBC3E796
:102DD0006FF040021A612046FFF74AFFC5E76FF027
:102DE00020021A61204600F05FFBC7E70368244A0F
:102DF000904212D002F5006290420ED0B0F1804FA6
:102E00000BD0A2F59832904207D002F58062904232
:102E100003D002F58062904203D123F070034A6828
:102E20001343174A904212D002F5006290420ED02E
:102E3000B0F1804F0BD0A2F59832904207D002F546
:102E40008062904203D002F58062904203D123F465
:102E50004073CA68134323F080034A691343036035
:102E60008B68C3620B688362054B984203D003F5FD
:102E70000063984201D10B690363012343617047EA
:102E8000002C014040B310B5044690F83D30F3B13A
:102E9000022384F83D30214651F8040BFFF7A6FFCA
:102EA000012384F8463084F83E3084F83F3084F8BB
:102EB000403084F8413084F8423084F8433084F85C
:102EC000443084F8453084F83D30002010BD80F84F
:102ED0003C30FEF7DDFADBE70120704740B310B568
:102EE000044690F83D30F3B1022384F83D3021468A
:102EF00051F8040BFFF77AFF012384F8463084F879
:102F00003E3084F83F3084F8403084F8413084F813
:102F1000423084F8433084F8443084F8453084F8F3
:102F20003D30002010BD80F83C30FFF79DFEDBE710
:102F300001207047002857D070B50D46044690F820
:102F40003D30002B4BD0022384F83D30226893683B
:102F500023F4804323F007039360214651F8040BC8
:102F6000FFF744FF21688A688B690E6A286810435E
:102F700023F4407C2CF0030CAA68AB6942EA0323DB
:102F800043EA0C0323F47C4323F0FC03EA69D5F8FD
:102F90000CC04CEA022C4CEA030C2A6A13032A697F
:102FA00043EA021343EA0C0326F022066A686D69BD
:102FB00042EA05123243886021688B6123681A62F5
:102FC000012384F8463084F83E3084F83F3084F89A
:102FD000423084F8433084F83D30002070BD80F8E2
:102FE0003C30FEF785FAAEE70120704730B4036A43
:102FF000026A22F0100202624468826922F4E64208
:103000000D6842EA052223F020038D6843EA051388
:10301000114DA84203D005F50065A84206D123F062
:103020008003CD6843EA051323F040030A4DA8420C
:1030300003D005F50065A84207D124F440644D692A
:1030400044EA85048D6944EA8504446082614A68E3
:103050008263036230BC7047002C014038B590F8A1
:103060003C30012B66D004460D46012380F83C30ED
:103070000C2A5AD8DFE802F0075959591B595959F7
:103080003059595944000068FFF7F0FC22689369F1
:1030900043F0080393612268936923F0040393616A
:1030A0002268936929690B43936100203EE0006820
:1030B000FFF79CFF2268936943F4006393612268E1
:1030C000936923F48063936122689369296943EAD1
:1030D00001239361002029E00068FFF7FBFC2268D0
:1030E000D36943F00803D3612268D36923F0040352
:1030F000D3612268D36929690B43D361002015E0AD
:103100000068FFF71FFD2268D36943F40063D361B1
:103110002268D36923F48063D3612268D369296963
:1031200043EA0123D361002000E00120002384F85A
:103130003C3038BD0220FCE710B4846824F47F4C96
:1031400042EA03220A4342EA0C02826010BC704742
:1031500090F83C30012B78D010B50446012380F85C
:103160003C30022380F83D300268936823F47F43AB
:1031700023F0770393600B68602B4CD029D8402B49
:1031800054D00CD9502B22D1CA6849680068FFF787
:1031900001FD50212068FFF722FD002005E0202BD3
:1031A0000DD009D9302B0AD00120012384F83D30FD
:1031B000002384F83C3010BD0BB1102B05D119460B
:1031C0002068FFF70CFD0020EFE70120EDE701206C
:1031D000EBE7B3F5805F34D0B3F5005F0CD1CB687B
:1031E0004A6889680068FFF7A7FF2268936843F47C
:1031F000804393600020D8E7702B24D1CB684A68C5
:1032000089680068FFF798FF2268936843F07703A6
:1032100093600020C9E7CA6849680068FFF7CCFCE2
:1032200060212068FFF7DBFC0020BEE7CA68496820
:103230000068FFF7AFFC40212068FFF7D0FC0020BA
:10324000B3E70020B1E70120AFE70220704701F0AB
:103250001F01012303FA01FC036A23EA0C03036242
:10326000036A02FA01F10B430362704710B504468A
:10327000084600293AD194F83E30DBB2013B18BF32
:103280000123002B66D1002849D1022384F83E3067
:10329000012201462068FFF7DAFF23682F4A934294
:1032A00003D002F50062934203D15A6C42F400420B
:1032B0005A642368294A934241D002F5006293423E
:1032C0003DD0B3F1804F3AD0A2F59832934236D038
:1032D00002F58062934232D002F5806293422ED092
:1032E0001A6842F001021A60002032E0042908D076
:1032F00008290DD094F84130DBB2013B18BF0123FF
:10330000BFE794F83F30DBB2013B18BF0123B8E7B9
:1033100094F84030DBB2013B18BF0123B1E7042829
:1033200005D0082807D0022384F84130B0E70223F3
:1033300084F83F30ACE7022384F84030A8E79A686D
:1033400002F00702062A07D01A6842F001021A604A
:10335000002010BD0120FCE70020FAE7002C01400E
:1033600038B5044690F83E00C0B294F83F3094F867
:103370004220D2B294F843C00D46B1B9012849D1D8
:10338000012A48D1022384F83E3084F842307DB3CC
:10339000042D39D0012200212068FFF758FF0122B7
:1033A00004212068FFF753FF27E0DBB25FFA8CFCB3
:1033B000042912D0012833D1012B2CD1012A31D17B
:1033C000BCF1010F30D1022384F83E3084F83F3045
:1033D00084F8423084F84330D9E7012B1CD1BCF18A
:1033E000010F1BD1022384F83F3084F84330CEE72D
:1033F000012200212068FFF72AFF2268136843F0AA
:1034000001031360002006E0012204212068FFF779
:103410001EFFF2E7012038BD0120FCE71846FAE75D
:103420000120F8E71846F6E71046F4E790F83C303C
:10343000012B34D010B4012380F83C30022380F8F3
:103440003D3003685A689C6822F0700C0A6842EAB2
:103450000C025A600368134A934212D002F50062CC
:1034600093420ED0B3F1804F0BD0A2F59832934225
:1034700007D002F58062934203D002F58062934246
:1034800004D124F080044A6814439C60012380F82E
:103490003D30002380F83C30184610BC70470220B5
:1034A000704700BF002C014070477047026802F16E
:1034B0000C0353E8003F23F490730C3242E80031D0
:1034C0000029F3D1026802F1140353E8003F23F00E
:1034D0000103143242E800310029F3D1036B012BC0
:1034E00005D0202380F84230002303637047026830
:1034F00002F10C0353E8003F23F010030C3242E8C2
:1035000000310029F3D1ECE790F84130DBB2212BF8
:1035100001D0022070478368B3F5805F17D0036A3B
:103520005A1C02621A7803685A60C38C9BB2013B32
:103530009BB2C3844BB90268D36823F08003D36085
:103540000268D36843F04003D360002070470369EA
:10355000002BE4D1036A1B880268C3F3080353609D
:10356000036A02330362E0E710B504460268136998
:1035700023F44053C1680B4313618368026913430A
:1035800042691A430168CB6823F4B05323F00C035B
:103590001343CB600268536923F4407381690B4382
:1035A00053610268134B9A4220D0FFF721FA02467A
:1035B00002EB820202EB820263689B00B2FBF3F231
:1035C0000D48A0FB02314909642303FB11231B01B1
:1035D0003233A0FB03235B0903F0F00202EB01127C
:1035E00003F00F03216813448B6010BDFFF710FA3E
:1035F0000246DDE7003801401F85EB512DE9F84315
:1036000005460F4616469946DDF820802C6824684A
:1036100037EA04030CBF4FF0010C4FF0000CB44527
:103620002DD1B8F1FF3FF1D0B8F1000F05D0FEF772
:10363000ADFAA0EB09004045E8D92A6802F10C0375
:1036400053E8003F23F4D0730C3242E800310029E4
:10365000F3D12A6802F1140353E8003F23F0010379
:10366000143242E800310029F3D1202385F841309B
:1036700085F84230002385F84030032000E0002028
:10368000BDE8F88360B310B5044690F8413013B339
:10369000242384F841302268D36823F40053D36094
:1036A0002046FFF761FF2268136923F490431361FA
:1036B0002268536923F02A0353612268D36843F4D4
:1036C0000053D36000206064202384F8413084F8E4
:1036D0004230606310BD80F84030FEF73DF8D7E718
:1036E000012070472DE9F04182B01E4690F841302C
:1036F000DBB2202B4BD104460D46904600294AD020
:103700000AB9012044E000234364212380F84130BA
:10371000FEF73CFA0746A4F82480A4F82680A368A4
:10372000B3F5805F02D04FF000080FE02369FBB1D2
:103730004FF000080AE038F8023B2268C3F30803A0
:103740005360E28C92B2013A92B2E284E38C9BB273
:103750008BB100963B46002280212046FFF74EFFAA
:10376000D8B9002DE7D015F8012B23685A60E8E797
:10377000A8460025EAE700963B4600224021204665
:10378000FFF73CFF58B9202384F8413000E00220C5
:1037900002B0BDE8F0810120FAE70320F8E703203A
:1037A000F6E7704708B50168CA6822F04002CA60AF
:1037B000202280F84120FFF7F4FF002008BD704769
:1037C000704708B5406A0023C385C384FFF7F8FF3C
:1037D00008BD704790F84230DBB2222B69D1836874
:1037E000B3F5805F4FD0826AB3F5805F04D0002BC1
:1037F00056D10369002B53D103685B681370836A49
:1038000001338362C38D9BB2013B9BB2C385002B06
:1038100051D100B583B00268D36823F02003D36090
:103820000268D36823F48073D3600268536923F07D
:1038300001035361202380F8423000234363036B6C
:10384000012B33D100230363026802F10C0353E818
:10385000003F23F010030C3242E800310029F3D17D
:1038600003681A6812F0100F06D0002201921A683D
:1038700001925B680193019B818DFFF7AAFF0020F5
:1038800003B05DF804FB0269002AACD1826A0368C8
:103890005B68C3F308031380836A02338362B1E772
:1038A00003685B6803F07F031370A8E7FFF787FFE7
:1038B000E5E70220704700207047000030B583B074
:1038C000044602681368D068516913F00F0505D1EA
:1038D00013F0200F02D010F0200F19D12DB111F0EC
:1038E000010119D110F4907F16D1216B01297DD0EF
:1038F00013F0800F03D010F0800F40F0188113F008
:10390000400F03D010F0400F40F0158103B030BDE0
:103910002046FFF75FFFF9E713F0010F06D010F420
:10392000807F03D0626C42F00102626413F0040FE6
:1039300004D019B1626C42F00202626413F0020F0B
:1039400004D019B1626C42F00402626413F0080FF3
:1039500007D010F0200F00D119B1626C42F00802BC
:103960006264626C002AD1D013F0200F02D010F0F4
:10397000200F29D123685B6903F04003626C12F0C9
:10398000080F00D163B32046FFF790FD23685B6901
:1039900013F0400F20D0226802F1140353E8003FD7
:1039A00023F04003143242E800310029F3D1E36BE5
:1039B00073B1634A5A63E06BFEF7CAF90028A5D0D9
:1039C000E06B436B9847A1E72046FFF703FFD1E781
:1039D0002046FFF7F5FE99E72046FFF7F1FE95E751
:1039E0002046FFF7EDFE002363648FE713F0100F0E
:1039F0003FF47EAF10F0100F3FF47AAF0023019335
:103A00001368019353680193019B536913F0400FAE
:103A100051D0E26B13685B689BB2002B3FF476AF2A
:103A2000A18D99427FF672AFE3859369202B37D041
:103A3000226802F10C0353E8003F23F480730C3238
:103A400042E800310029F3D1226802F1140353E85F
:103A5000003F23F00103143242E800310029F3D182
:103A6000226802F1140353E8003F23F040031432AC
:103A700042E800310029F3D1202384F842300023AA
:103A80002363226802F10C0353E8003F23F0100384
:103A90000C3242E800310029F3D1E06BFEF734F933
:103AA00002236363A18DE38D9BB2C91A89B22046BC
:103AB000FFF78FFE2AE7A18DE38D9BB2C91A89B269
:103AC000E38D9BB2002B3FF421AF00293FF41EAFE2
:103AD000226802F10C0353E8003F23F490730C3288
:103AE00042E800300028F3D1226802F1140353E8C1
:103AF000003F23F00103143242E800300028F3D1E4
:103B0000202384F8423000232363226802F10C034F
:103B100053E8003F23F010030C3242E80030002845
:103B2000F3D1022363632046FFF753FEEEE62046FF
:103B3000FFF7EAFCEAE62046FFF734FEE6E600BFC0
:103B4000C337000843684B609A688A605160996087
:103B50000861036801330360704703694168826844
:103B60008A60416851605A68824206D00022026130
:103B70001A68013A1A601868704782685A60F5E757
:103B8000074B19680868B0E8F00F80F30988BFF3A5
:103B90006F8F4FF0000080F311884EF00D0E7047CC
:103BA0000C0D0020000000000000000000000000DC
:103BB000EFF30980BFF36F8F0D4B1A6820E9F00F08
:103BC00010602DE908404FF0500080F3118800F09C
:103BD000C9F84FF0000080F31188BDE8084019686B
:103BE0000868B0E8F00F80F30988BFF36F8F704763
:103BF0000C0D002008B54FF0500383F31188BFF37C
:103C00006F8FBFF34F8F00F021F828B14FF0E02302
:103C10004FF08052C3F8042D002383F3118808BDB0
:103C2000084B1B681B6823B9074B4FF0FF321A6023
:103C30007047044B1B68DB68DB685A68024B1A60EC
:103C4000704700BF100D002084110020F8B53A4BDA
:103C50001B68002B64D1394B1D6801351D60C5B947
:103C6000374B1B681B6843B14FF0500383F3118837
:103C7000BFF36F8FBFF34F8FFEE7314A1168314BAF
:103C8000186810601960304A136801331360FFF739
:103C9000C7FF2E4B1B68AB4238D900272C4B1B6843
:103CA000DB6A03EB83039A002A4B9B58012B3CD918
:103CB00001273AE00127224B1B681B6843B3204BC6
:103CC0001B68DB68DC6863689D4226D3261D30468E
:103CD000FFF743FFA36A1BB104F11800FFF73DFF94
:103CE000E36A1D4A1268934201D91B4A136003EB31
:103CF00083039A00314617481044FFF723FFE26A16
:103D0000134B1B68DB6A9A42D4D2D4E70027D2E770
:103D10000E4B4FF0FF321A60C0E70C4A1360BDE74C
:103D20000E4A13680133136000270D4B1B6803B163
:103D300001273846F8BD00BF7C1100208C110020FF
:103D4000100D0020140D0020881100208411002087
:103D50000C0D0020180D002080110020781100208B
:103D6000901100201F4B1B681BB11F4B01221A60D2
:103D700070471D4B00221A601C4B1B6803EB83012C
:103D80008A001B498A585AB90BB1013BF6E74FF03C
:103D9000500383F31188BFF36F8FBFF34F8FFEE79C
:103DA00003EB830082000A4450684068506003EBD4
:103DB000830C4FEA8C020832114488420BD003EB8B
:103DC000830291000A4A0A445268D168094A116084
:103DD000064A13607047406862469100044A0A44EC
:103DE0005060ECE77C110020901100208011002031
:103DF000180D00200C0D0020014B1868704700BF03
:103E00000C00002070B50D4E0D4D761BB61006D07F
:103E1000002455F8043B01349847A642F9D1094ED5
:103E2000094D06F013F8761BB61006D0002455F89D
:103E3000043B01349847A642F9D170BD68A200083E
:103E400068A2000870A2000868A20008830730B5C5
:103E500048D0541E002A3FD00346CAB201E0013CBC
:103E60003AD303F8012B9D07F9D1032C2DD9CDB2FC
:103E700045EA05250F2C45EA054536D9A4F110027F
:103E800022F00F0C03F1200EE6444FEA121C03F15E
:103E9000100242E9045542E9025510327245F8D148
:103EA0000CF1010214F00C0F03EB021204F00F0CE2
:103EB00013D0ACF1040323F003030433134442F89A
:103EC000045B9342FBD10CF003042CB1CAB21C4436
:103ED00003F8012B9C42FBD130BD64461346002CF5
:103EE000F4D1F9E703461446BFE71A46A446E0E7D3
:103EF0000CB410B51E4B00291C689CB033DB4FF48A
:103F000002734FF6FF7CADF81430029006901FABA1
:103F100016D001391E9A04910791204602A90193F7
:103F2000ADF816C000F054F8421C01DA8B23236070
:103F30000022029B1A701CB0BDE8104002B070470E
:103F40000491079120461E9A02A90193ADF816C06C
:103F500000F03EF8431C01DA8B2323601CB0BDE85F
:103F6000104002B070478B234FF0FF302360F5E71D
:103F70000C00002020F0030110F00300C0F100004D
:103F800051F8043B00F1040C4FEACC0C6FF0000236
:103F90001CBF22FA0CF213434FF0010C4CEA0C2C1C
:103FA0004CEA0C4CA3EB0C0222EA030212EACC12FC
:103FB00004BF51F8043B0430F4D0C2F1000102EA1E
:103FC0000102B2FA82F2C2F11F0200EBD200704786
:103FD0002DE9F04FD5B00C460C9191460E930A9006
:103FE00002F0BAFE036818461793FFF7C3FFA389D0
:103FF0001690190603D52369002B00F08F87002443
:104000002BAB224698464D46CDE92944289312947D
:1040100000230024CDE914342B78CDE91922CDE911
:104020001B2218920892002B00F0CE81AA4604E0D1
:104030001AF8013F002B00F00981252BF8D1BAEBCB
:10404000050640F007819AF80030002B00F0BC8193
:1040500000234FF0FF324FF02B0920241F469AF81F
:10406000016007920AF1010A8DF8833009930AF181
:10407000010AA6F120035A2B00F22081DFE813F099
:10408000CA021E011E01C5021E011E011E01A3025D
:104090001E011E016A00F3021E014702D9021E0121
:1040A000D4025B005B005B005B005B005B005B00BD
:1040B0005B005B001E011E011E011E011E011E0190
:1040C0001E01B0011E010B027A00B001B001B00167
:1040D0001E011E011E011E019E021E011E01B600D0
:1040E0001E011E011E0119021E014C021E011E01AD
:1040F0003F071E011E011E011E011E011E011E01A1
:104100001E01B0011E010B027C00B001B001B00124
:1041100091027C0075001E0184021E017002B8002D
:104120005E0275001E01190272001C071E011E01AD
:104130001F071E0172000022A6F130031AF8016B5E
:1041400002EB820203EB4202A6F13003092BF5D900
:1041500009928EE70E9B53F8042B002A09920E93C6
:10416000C0F2D2819AF8006081E79AF8006047F0C7
:1041700020077CE747F01007BA060E9B40F17D81CF
:10418000073323F007031A465B6852F8084B994639
:104190000E92002BC0F27F85079B013301F039801E
:1041A00054EA090327F0800B00F005850A2C79F109
:1041B000000380F0938701235F4630348DF84F4130
:1041C0000B930DF24F15079A0B9900238A42B8BF43
:1041D0000A4606929DF883200D930F931393109334
:1041E000002A7CD0069B0133069378E047F0100745
:1041F00017F0200900F032810E9B073323F00703EC
:10420000D3F8049053F8084B0E93002327F4806BE7
:1042100000228DF88320079A511C00F02A8254EA6C
:1042200009012BF0800740F02382002A41F02B8007
:10423000002B40F0C5841BF001030B9300F0548564
:1042400030230DF24F158DF84F31BCE7BAEB050660
:1042500000F0BA802A9BC8E9005633442A93299B70
:104260000133072B299305DC08F10808089B334428
:104270000893E8E60C990A9828AA03F09BFC80B9F9
:104280000DF1AC08F2E70C990A9828AA03F092FC09
:10429000002800F08A800D9B1BB10D990A9802F04E
:1042A0005BFC0C9B9B8913F0400F089B18BF4FF0E1
:1042B000FF330893089855B0BDE8F08F002E00F04A
:1042C0008380012300228DF8EC6006933BAD8DF8CE
:1042D00083200B930D9207920F921392109217F076
:1042E000020302D006990231069117F0840B07D120
:1042F00009990698A1EB0009B9F1000F00F3368384
:104300002A9C82B10122C8F80420299A0134013282
:104310000DF18301072A2A942992C8F8001000F3AE
:10432000698308F108087BB10223C8F80430299B8F
:104330000234013321AA072B2A942993C8F80020BC
:1043400000F36C8308F10808BBF1800F00F02E82A7
:10435000079B0B9AA3EB020BBBF1000F00F37182DA
:10436000FB0500F1C5810B9BC8F800501C44C8F840
:104370000430299B2A940133072B299300F3EA8206
:1043800008F108087B0705D5099B069A9D1A002DA0
:1043900000F35083DDE9083206998A42ACBF9B18CE
:1043A0005B180893002C7FF46EAF002329930D9BBC
:1043B0001BB10D990A9802F0CFFB55460DF1AC08E0
:1043C0002B78002B7FF432AE2A9B002B3FF469AF91
:1043D0000C9C0A98214628AA03F0ECFBA38962E70B
:1043E0000E9B073323F00702F2E80234CDE91434C0
:1043F000DDE9143424F00044994618460E92214613
:104400004FF0FF32B64BFCF7FFFB002840F09684DC
:10441000484621464FF0FF32B14BFCF72FF90028F8
:1044200040F08C84DDE9140100220023FCF71CF924
:10443000002840F0A6879DF8832000210320A94D85
:10444000A94B27F080070D910690472EC8BF1D4647
:1044500007910B900F9113911091C1E617F0100383
:1044600040F0628417F0400200F07B870E9A994674
:1044700052F8044B0E92A4B2C7E653F8044B0E93C5
:10448000FB0600F141847D0640F13B8444F3C039D2
:104490004B4624B27DE6012000220E9B069053F885
:1044A000041B3BAD8DF883208DF8EC100E930B9020
:1044B00010E74FF000090E9C079B54F8045B8DF841
:1044C0008390002D00F0EE865A1C00F060851A469D
:1044D0004946284602F0F8FE0D90002801F09E8023
:1044E0000D9B9DF883205B1B0B9323EAE373CDF8B0
:1044F0001C900E940693CDF83490CDF83C90CDF8F6
:104500004C90CDF840906BE6099B5B4209939AF87A
:10451000006047F00407AAE547F0100B1BF02009E4
:1045200000F0AA830E9B073323F007031A4652F8C4
:10453000084BD3F804900E92012369E630227826C6
:104540000E9B8DF8842053F8044B684A0E934FF06D
:104550000009022347F0020B8DF88560189257E698
:10456000BD0600F1D683FC0600F19386780600F1C3
:104570005D87B90540F18D860E9B089953F8042B91
:10458000554611700E931BE79AF800606C2E03BF1E
:104590009AF8016047F020070AF1010A47F0100776
:1045A00065E59AF80060682E03BF9AF8016047F449
:1045B00000770AF1010A47F0400758E59AF80060D1
:1045C00047F0080753E50A9E304602F0C5FB4368F2
:1045D00018461B93FFF7CEFC034630461C931E463D
:1045E00002F0BAFB83681993002E3FF4BBAD199B10
:1045F000002B3FF4B7AD199B1B78002B3FF4B2ADF5
:104600009AF8006047F4806731E59AF8006047F057
:1046100001072CE59DF88330002B7FF4A3AD9AF8B9
:1046200000608DF8834022E59AF8006047F080072B
:104630001DE5524612F8016B2A2E01F0EB81A6F11E
:104640003003092B924698BF002201F203801AF82A
:10465000016B02EB820203EB4202A6F13003092B4D
:10466000F5D9079205E59AF800608DF88390FEE48D
:10467000BB46012B3FF49AAD022B54AD12D1189AD0
:1046800004F00F03D35C240944EA09744FEA1919B2
:1046900005F8013D54EA0903F2D154AB5B1B5F46B8
:1046A0000B9390E504F00703E40844EA49744FEAE9
:1046B000D909303354EA09012A4605F8013DF1D100
:1046C0001BF0010FE9D0302BE7D03023023A05F878
:1046D000013C54AB9B1A5F4615460B9373E500BF34
:1046E000FFFFEF7FB09E0008B49E0008C09E000848
:1046F000652E40F3E980DDE9140100220023FBF779
:10470000A9FF002800F0D2810123C8F80430299BBA
:10471000BF4A01330134072B2A942993C8F800209B
:1047200000F37A8508F10808229B129A934280F2DE
:10473000D782169B179A1C44C8E90023299B2A9408
:104740000133072B299300F3DD8308F10808129B3E
:104750005D1E002D7FF716AE102D41F34181DFF86D
:10476000B492224649461026B946299B0F46DDF8E9
:1047700028B00C9C05E008F10808103D102D40F30E
:10478000588501331032072BC8E90076CDE929326C
:10479000F1DD2146584628AA03F00CFA00287FF4E0
:1047A0007AADDDE929320DF1AC08E6E7099B069AFE
:1047B000A3EB020BBBF1000F7FF7CAADBBF1100FEB
:1047C00041F30580DFF84C9241462046A8464C460E
:1047D0001023299A0C9DDDF8289006E0ABF1100B10
:1047E000BBF1100F01F1080119DD01321030072A69
:1047F000C1E90043CDE92920F0DD2946484628AA31
:1048000003F0D8F900287FF446ADDDE92920ABF1AB
:10481000100BBBF1100F4FF010032BA9E5DC454640
:10482000A1468846044601325C44072ACDE9292482
:10483000C8F80090C8F804B000F3188508F108081B
:1048400086E5BBF1100F40F39785DFF8C89141462C
:104850002046A8464C461023299A0C9DDDF8289046
:1048600006E0ABF1100BBBF1100F01F1080119DDEF
:1048700001321030072AC1E90043CDE92920F0DDDB
:104880002946484628AA03F095F900287FF403AD8D
:10489000DDE92920ABF1100BBBF1100F4FF0100335
:1048A0002BA9E5DC4546A1468846044601325C4416
:1048B000072ACDE92924C8F80090C8F804B000F30D
:1048C000CE8108F108084BE5129B012B40F37E8155
:1048D0000123299E01341E44072EC8F800502A9453
:1048E000C8F80430299600F3E18108F10808169B06
:1048F0000136179A1C44072EC8E90023CDE9296424
:1049000000F3E18108F108080022DDE91401002329
:10491000FBF7A0FE002840F07681129B0136013B98
:1049200001351C44072EC8F800502996C8F80430F9
:104930002A9400F35B8108F108081A9B01361C4495
:10494000C8F80430072E24ABCDE92964C8F800303C
:104950007FF716AD0C990A9828AA03F02BF90028C6
:104960007FF499AC2A9C0DF1AC080BE5B9F1100F5E
:1049700040F35086DDE929214046CDE91D36B84691
:1049800010244F460C9EA9460A9D04E0103F102FAC
:1049900000F1080016DD01321F4B1031072AC0E973
:1049A0000034CDE92921F1DD3146284628AA03F05B
:1049B00001F900287FF46FACDDE92921103F102FA9
:1049C0002BA8E8DC4D46DDE91D36B9464746804652
:1049D00009EB010401321049072ACDE92924C8F85E
:1049E0000490C8F8001000F3C3839DF8832008F1F9
:1049F000080886E40C990A9828AA1D9303F0DAF8AF
:104A000000287FF448AC2A9C1D9B0DF1AC088AE479
:104A1000F09E0008049F0008F49E00080C990A9874
:104A200028AA03F0C7F800287FF435AC2A9C0DF1C2
:104A3000AC0889E4102D40F3C4861026299B0A9FF8
:104A4000DDF8309004E0103D102D08F1080817DD66
:104A50000133B84A1034072BC8E90026CDE92934C0
:104A6000F1DD4946384628AA03F0A4F800287FF46F
:104A700012ACDDE92934103D102D0DF1AC08E7DC56
:104A80000133AC4A2C44072BCDE92934C8F8045033
:104A9000C8F800207FF77EAC0C990A9828AA03F08A
:104AA00089F800287FF4F7AB2A9C73E42299002947
:104AB00040F36F83DDF84090129B9945A8BF99465B
:104AC000B9F1000F0BDD299B4C440133072BC8E9DA
:104AD00000592A94299300F31D8508F10808109EB7
:104AE000B9F1000FA8BFA6EB0906002E00F325823E
:104AF000DDF840B07805AB4400F15F82229B129A4A
:104B0000934202DBF90740F17684169A1799144410
:104B1000C8E90012299A2A940132072A299200F33F
:104B2000138508F10808129AAE18A6EB0B06D51AE1
:104B3000AE42A8BF2E46002E0DDD299B3444013322
:104B4000072BC8F800B0C8F804602A94299300F332
:104B5000718508F10808002EA8BFAD1B002D7FF756
:104B600011AC102D40F33C87DFF8CC91224649462A
:104B70001026B946299B0F46DDF828B00C9C05E0AD
:104B800008F10808103D102D40F353830133103213
:104B9000072BC8E90076CDE92932F1DD21465846D8
:104BA00028AA03F007F800287FF475ABDDE9293265
:104BB0000DF1AC08E6E7079B002B7FF4FCAA5F46EB
:104BC000002354AD07930B93FFF7FDBAFA073FF5A7
:104BD0007FAE0123299E01341E44072EC8F80050E1
:104BE0002A94C8F8043029967FF7A5AE0C990A9844
:104BF00028AA02F0DFFF00287FF44DABDDE929642D
:104C00000DF1AC0899E6129B5D1E002D7FF795AE65
:104C1000102D40F3DF86224607974FF0100BDFF888
:104C200018910A9C0C9F05E008F10808103D102D12
:104C300040F37F8301361032072EC8E9009BCDE98F
:104C40002962F1DD3946204628AA02F0B3FF002888
:104C50007FF421ABDDE929620DF1AC08E6E70C99A0
:104C60000A9828AA02F0A6FF00287FF414AB2A9C19
:104C70000DF1AC08FFF774BB1BF010030E9A3AD18C
:104C80001BF0400133D052F8044B99460E92012399
:104C9000A4B2FFF7BDBA2D2364428DF88330BB4622
:104CA0004FF0010369EB4909FFF7B5BA0C990A986F
:104CB00028AA02F07FFF00287FF4EDAADDE929642D
:104CC0000DF1AC0813E60C990A9828AA02F072FFBD
:104CD00000287FF4E0AADDE929640DF1AC0813E6B1
:104CE000FD077FF54FAB24E554ADFFF76CBA1BF41D
:104CF000007940F08A8352F8044B01230E92FFF7AB
:104D000087BAB80500F19B834FEAE4794B46FFF779
:104D100040BA0E9B089853F8041BC2175546C1E9C8
:104D200000020E93FFF74CBB0E9B53F8044B0E93FF
:104D3000FFF76BBAF49E0008049F0008DDE9140138
:104D400002460B46FBF760FF002840F0E985612E24
:104D500000F07D85412E00F08B84079B013300F02D
:104D60008F8326F02003472B069300F08F85DDE923
:104D7000141247F480730F931346002BC0F2B085D2
:104D80000B9300238B461D930D93069B462B00F03F
:104D9000E983452B00F0468507990B9B0191022181
:104DA000009126A9049123A9039122A95A460A98A1
:104DB000029100F005FF069B0546472B40F03A861E
:104DC00017F0010FB9460F9F40F0FE84269B5B1B36
:104DD0001293069B472B00F06E83069B462B00F038
:104DE000F083229B1093109B069A013B412A229349
:104DF00000F0BB850021F2B2002B8DF89020B6BFE9
:104E00002D222B22109B8DF89120B8BFC3F10103F6
:104E1000092B40F39B850DF19F0C6246B64F1C4653
:104E2000104687FB0312D917C1EBA20101EB8102E7
:104E3000A3EB42023032632C00F8012C0B4600F148
:104E4000FF32ECDC3033811EDBB28C4502F8013CD2
:104E500040F2F9850DF1920101E012F8013B944511
:104E600001F8013BF9D10DF1A1030DF192021B1ADA
:104E7000134424AA9B1A1A93129B1A9A012B1A44C0
:104E80000B9240F381850B9B169A13440B930023DE
:104E90000B9A29F4806722EAE27247F480770F9335
:104EA0000692139310931D9B002B40F02C839DF8CA
:104EB00083200793FFF794B9BB46FFF72FBB8F4BB7
:104EC000189317F0200900F0F5800E9B073323F0AC
:104ED0000703D3F8049053F8084B0E93F80709D54D
:104EE00054EA090306D030238DF8856047F00207A5
:104EF0008DF88430022327F4806BFFF789B9804B4B
:104F00001893DEE70C990A9828AA02F053FE0028AD
:104F10007FF4C1A92A9C0DF1AC0818E440210A983D
:104F200001F026FF0C9B18601861002800F097859F
:104F300040230C9A5361FFF762B8102E40F3768538
:104F4000DFF8C091424648462146A846B9464FF090
:104F5000100B0746299B0A9C0C9D04E00832103E6A
:104F6000102E40F3138201331031072BC2E9007B6E
:104F7000CDE92931F2DD2946204628AA02F01AFEA1
:104F800000287FF488A9DDE929312BAAE7E7284624
:104F9000CDF81C900E94FEF7EDFF20EAE0739DF82B
:104FA00083200B90CDF83490CDF83C90CDF84C9008
:104FB000CDF840900693FFF713B9129B4246DDF8F7
:104FC0004C80EB185E460793CDF82CA01097214635
:104FD000199FDDF87090DDF828A0DDF830B00F9B48
:104FE0001395B8F1000F2ED083BB013F08F1FF38B5
:104FF0001B9B4944C2E90039299B2A910133072BA5
:10500000299360DC0832079B38789B1B8342A8BF3A
:105010000346002B1C460BDD299819440130072854
:10502000C2E900632A91299000F31481387808328C
:10503000002CB4BF0546051B002D0BDC06440F9B5E
:10504000B8F1000FD0D1002B00F026820F9B013B5E
:105050000F93CDE7102D40F39D841024299804E090
:10506000103D102D02F1080216DD0130254B1031E4
:105070000728C2E90034CDE92901F1DD594650463F
:1050800028AA02F097FD00287FF405A9DDE929018F
:10509000103D102D2BAAE8DC01301A4B29440728BB
:1050A000CDE929015560136000F341823878083258
:1050B0000644C4E717F0100300F0A0800E9B53F8DD
:1050C000044B0E930AE75946504628AA02F072FD97
:1050D00000287FF4E0A82A992BAA94E700230BF478
:1050E00080620696CDF82CA0CDF8348092461E46FC
:1050F000DDF8648054AF14E067666666C09E000801
:10510000D49E0008049F00080023204649460A2236
:10511000FBF7B8FD0A2C79F100031BD3044689463E
:105120002F4620460A2200234946FBF7ABFD3032CA
:105130007D1E013607F8012CBAF1000FE4D098F873
:1051400000309E42E0D1FF2EDED00A2C79F1000320
:1051500080F0308154AB5B1BDDF82CA0CDF864806F
:1051600012965F46069EDDF834800B93FFF72BB84E
:105170000C990A9828AA1D9302F01CFD00287FF4C0
:105180008AA89DF883202A9C1D9B0DF1AC08FFF78F
:10519000B8B80123C8F80430299BBC4A0133013454
:1051A000072B2A942993C8F8002000F3178108F1EF
:1051B0000808002940F08680129A07F00103134383
:1051C0003FF4E0A8169B17991A19C8E90013299B08
:1051D0002A920133072B299300F3378108F108083D
:1051E000129901338C18072BCDE92934C8F80050E7
:1051F000C8F804107FF7C4A8FFF7ACBB17F0400253
:1052000000F0A5800E9A994652F8044B0E92A4B273
:1052100064E6BB46FEF7CABF0C990A9828AA02F0BA
:10522000C9FC00287FF437A82A9C0DF1AC08FFF7D1
:105230007BBA14463A464F46914601332C44072B1D
:10524000C8F80090C8F80450CDE929347FF798A831
:10525000FFF780BB5946504628AA02F0ABFC002855
:105260007FF419A838782A992BAAE1E60C990A98B4
:1052700028AA02F09FFC00287FF40DA82A9C0DF1BB
:10528000AC08FFF765B8012BBB467FF4F5A9FEF724
:1052900092BF0E9B089953F8042B554611600E934C
:1052A000FFF78EB8062B294628BF06232A46079506
:1052B0000D950693764D0E940B930F9113911091CB
:1052C000FEF78EBF169B17981A19C8E90003299B91
:1052D0002A920133072B299300F3B78008F10808BD
:1052E0000029BFF67DAF4E42103180F2A9834146BE
:1052F0001024A846DFF89C91DDF828B00C9D04E04E
:105300000831103E102E40F3A78201331032072BD4
:10531000C1E90094CDE92932F2DD2946584628AA90
:1053200002F048FC00287EF4B6AFDDE929322BA953
:10533000E7E71446079F01362C44072ECDE9296480
:10534000C8F80090C8F804507FF7F5AA4EE417F4A7
:1053500000790E9B66D053F8044B91460E93E4B24D
:10536000BCE517F400790E9B57D053F8044B9146D7
:105370000E93E4B2FEF749BF299ADFF81891FFF7C0
:1053800095BA2D228DF88320FFF757B845469046F1
:105390003A460C464F46914601333444072BCDE93B
:1053A0002934C8F80090C8F804605CDC08F10808EB
:1053B000FFF79EBB1C9B1B99ED1A1A46284602F06C
:1053C000C5FB98F801300BB108F1010820464946A9
:1053D0000A2200230026FBF755FC9FE60C990A9849
:1053E00028AA02F0E7FB00287EF455AF22992A9CF8
:1053F0000DF1AC08DDE6129AAE18A6EB0B06D51A35
:10540000AE42A8BF2E46FFF7A6BB52F8044B894612
:1054100001230E92E4B2FEF7FBBE53F8044B0E9349
:10542000FEF7F3BE53F8044B0E9357E50E9B089915
:1054300053F8042B554611800E93FEF7C1BF44F379
:10544000C0194B4664B2FEF7A4BE0C990A9828AA6C
:1054500002F0B0FB00287EF41EAFDDE9293222996C
:105460000DF1AC083CE70C990A9828AA02F0A2FBBF
:1054700000287EF410AF2A9C0DF1AC08FFF738BB72
:105480000623079326F02003069370E4F09E00089D
:10549000E89E0008049F0008DDE91235EB189E42E3
:1054A000B346199790460C4628BF9B46DDF82CA0C2
:1054B000109FFFF723BB229BDA1C109302DB079A95
:1054C000934204DD023E26F0200306938BE4109BFA
:1054D000129A9342C0F2C28019F0010F00F01D82AF
:1054E000169A13440B9319F4806F00F01482109BEA
:1054F0006726002B76DC0B9B23EAE37306930023DD
:105500000F931393CFE42D2200238DF8832007936C
:10551000FEF768BE0C990A9828AA02F04BFB0028F7
:105520007EF4B9AE2A9C0DF1AC08FFF7D8BA594603
:10553000504628AA02F03EFB00287EF4ACAE387834
:105540002A992BAA06447AE50C990A9828AA02F00F
:1055500031FB00287EF49FAE229B2A9C0DF1AC0803
:10556000FFF7E1BA07990B9B01910321009126A94E
:10557000049123A9039122A95A460A98029100F0A6
:105580001FFB03780546302B00F01682229B079AFA
:10559000B94613440F9FEC185846002200230B997C
:1055A000FBF758F808B1234611E4269BA342BFF449
:1055B0000EAC30215A1C26921970269B9C42F9D8B9
:1055C00005E4229A002A109240F30E82079909F00E
:1055D00001030B4340F07E816626109B0B9319F468
:1055E000806F88D019990B78FF2B00F0258200245A
:1055F000109A204604E001300131FF2B00F0598160
:10560000934280F25681D21A4B78002BF3D10B785B
:105610000134F2E7DDE92921FFF7DAB9079B9DF8AC
:1056200083200E9406930B9307900F901390109085
:10563000FEF7D6BD0C990A9828AA02F0BBFA0028FA
:105640007EF429AE229D129B2A9C0DF1AC085D1BB5
:10565000FFF781BA00230793FEF70BBD129B169A42
:105660009A18109B0B92002B40F385816726B6E7B2
:1056700030238DF8843058238DF88530079B47F010
:105680000204632B00F3C48000233BAD0D9347F469
:1056900081730F93DDE914121346002B2746C0F2E5
:1056A00084800B9300238B461D9326F020030693E2
:1056B000612E00F01881412E7FF467AB22AA584674
:1056C0000B9902F0F9F900224FF07F53FBF78AF8AB
:1056D00002460B46CDE9102300220023FAF7BAFF59
:1056E00008B101232293AD4B0B93079BCDE912A682
:1056F000CDE91E78DDE91067AB46DDF82CA003F19B
:10570000FF39109506E00022002309F1FF39FAF76E
:10571000A1FFE8B90022A24B30463946FBF762F8F8
:105720000F460646FBF786FA0446FAF7D3FE0B4609
:10573000024639463046FAF77FFD1AF80430B9F1CF
:10574000FF3FD8464D4606460F460BF8013BDAD1DF
:10575000304639460022934BA946DDF848A0109DFB
:10576000CDF84880CDE91001DDF87C80139E1E9FA6
:10577000FAF798FF80BBDDE910010022894BFAF7A8
:1057800069FF08B1E10727D44B46002B06DB302226
:1057900001335B440BF8012B5B45FBD1ABEB0503FD
:1057A000B94612930F9FFFF714BB26F02003069310
:1057B0002D22DDE914349B4604F100431D920B9326
:1057C00076E7299BFFF75CB9079BEC18E4E6299A7A
:1057D000DFF8D491FFF727B8129B26930B9B1BF899
:1057E000012CD97B5B468A4209D1302003F8010C99
:1057F000269B5A1E269213F8012C9142F6D0392A84
:105800000BBF0B9A0132927AD2B203F8012CC5E792
:105810000A98591C01F0ACFA0546002800F01781DF
:105820000D9034E70221009107995A464C1C26A995
:10583000049123A9039122A90B9B0A980194029138
:1058400000F0BEF90546B9462C440F9FA4E630236C
:105850008DF8843078230FE745468846013332447B
:10586000072BCDE92932C8F80090C8F804607FF70B
:10587000B5AC0C990A9828AA02F09CF900287EF48D
:105880000AADDDE929320DF1AC08A9E4079B002B34
:1058900008BF0123079347F480730F93159B002BD8
:1058A000C0F2B680DDF850B00D900B931D90FFF75D
:1058B00073BA1991109213900F940F9A139B1C991D
:1058C00013440B9A01FB03230B9323EAE373069320
:1058D000FFF7E9BA169B6626D31819440B917EE6AA
:1058E00000230D9364E722AA58460B9902F0E4F8CE
:1058F00000224FF07F53FAF775FF02460B46CDE9C1
:10590000102300220023FAF7A5FE08B101232293F9
:10591000264B0B93E9E66726EDE5109B0B93E2E53A
:10592000159B0320002BB8BF2D224FF00003A8BF0A
:105930009DF8832019460D931D4D1E4BB8BF8DF861
:10594000832027F080070690FEF77FBD002944D111
:1059500030228DF892200DF19302303302F8013B92
:1059600024ABD31A1A93FFF787BA06F10F0201216D
:10597000D2B2FFF741BAC3F101031A4422EAE2733B
:1059800067260B920693BAE519F0010F3FF47FAA40
:10599000FFF779BA2998FFF77FBB00BFD49E0008B4
:1059A000000030400000E03F049F0008C09E000857
:1059B000B89E0008BC9E00085846002200230B99A0
:1059C000FAF748FE00287FF4E1AD079BC3F101031D
:1059D0002293DCE5DFF89890ADE40DF19202BCE78C
:1059E000299BDFF88C9028E4079A09F0010959EA0D
:1059F000020304D10123662606930B937FE5169BD1
:105A0000662601331A4422EAE2730B92069376E586
:105A10000D90CDE60E9B9AF80160924653F8042B48
:105A20000E9342EAE2730793FEF721BB299BDFF84E
:105A30004090B1E4079C06E700230F9313933CE7E3
:105A4000DFF82C900AE702231A93FFF715BA0C9996
:105A50008B8943F0400213468A81FEF724BC4FF045
:105A6000FF320C2308920A9A1360FEF723BC00BF92
:105A7000049F0008024B13B1024800F005B87047BC
:105A8000000000008D6A0008002301461A461846EF
:105A900002F00EB92DE9F04F03690C6985B0A342FD
:105AA000C0F28980013C01F11405A30000F1140843
:105AB000019355F8243058F8242001338A469A423D
:105AC00008EB84018146B2FBF3F605EB84070291F3
:105AD0003AD30021AE4640460A46A34603955EF8F7
