:020000040800F2
:1000000000C0002005050008E5040008E70400081A
:10001000E9040008EB040008ED04000800000000FB
:10002000000000000000000000000000A112000815
:10003000EF040008000000004113000885130008C9
:100040004D0500084D0500084D0500084D05000848
:100050004D0500084D0500084D0500084D05000838
:100060004D0500084D0500084D0500084D05000828
:100070004D0500084D0500084D0500084D05000818
:100080004D0500084D0500084D0500084D05000808
:100090004D0500084D0500084D0500084D050008F8
:1000A0004D0500084D0500084D0500084D050008E8
:1000B0004D0500084D0500084D0500084D050008D8
:1000C0004D0500084D0500084D0500084D050008C8
:1000D0004D0500084D0500084D0500084D050008B8
:1000E0004D0500084D0500084D0500084D050008A8
:1000F0004D0500084D0500084D0500084D05000898
:100100004D0500084D0500084D0500084D05000887
:100110004D0500084D050008F10400084D050008D4
:100120004D0500084D0500084D0500084D05000867
:1001300000000000000000000000000000000000BF
:1001400000000000000000000000000000000000AF
:10015000000000000000000000000000000000009F
:10016000000000000000000000000000000000008F
:10017000000000000000000000000000000000007F
:10018000000000000000000000000000000000006F
:10019000000000000000000000000000000000005F
:1001A000000000000000000000000000000000004F
:1001B000000000000000000000000000000000003F
:1001C000000000000000000000000000000000002F
:1001D000000000000000000000000000000000001F
:0401E0005FF8E0F1F3
:1001F00010B5054C237833B9044B13B10448AFF361
:1002000000800123237010BD3C040020000000008A
:10021000902D000808B5034B1BB103490348AFF309
:10022000008008BD0000000040040020902D000860
:10023000844641EA000313F0030349D1403A23D333
:100240000B6803604B6843608B688360CB68C36056
:100250000B6903614B6943618B698361CB69C3613E
:100260000B6A03624B6A43628B6A8362CB6AC36226
:100270000B6B03634B6B43638B6B8363CB6BC3630E
:1002800040304031403ADBD230320BD30B68036050
:100290004B6843608B688360CB68C360103010315B
:1002A000103AF3D20C3205D351F8043B40F8043B2A
:1002B000043AF9D2043208D0D2071CBF11F8013B2E
:1002C00000F8013B01D30B8803806046704700BFF4
:1002D000082A13D38B07B1D010F00303AED0C3F1BB
:1002E0000403D21ADB071CBF11F8013B00F8013BE5
:1002F000A4D331F8023B20F8023B9FE7043AD9D35C
:10030000013A11F8013B00F8013BF9D20B78037078
:100310004B7843708B7883706046704708B5012036
:1003200000F0FCFEFBE7000008B5044A0021044889
:1003300000F07EFE034B186008BD00BFB42D00081E
:100340001D0300085804002082B00A4B9A6942F04D
:1003500020029A619A6902F020020092009A9A693A
:1003600042F004029A619B6903F004030193019B2C
:1003700002B070470010024008B50268034B9A4271
:1003800000D008BD00F0F6F8FBE700BF0010004009
:1003900072B6FEE700B591B02822002106A802F04F
:1003A00035FC0023019302930393049305930122E8
:1003B00006924FF4803307930A9202220D920E9315
:1003C0004FF4E0130F9306A800F054F980B90F23FF
:1003D000019302210291002303934FF4806204925F
:1003E000059301A800F078FB20B911B05DF804FB7B
:1003F000FFF7CEFFFFF7CCFF08B500F0A9F8FFF735
:10040000C9FFFFF7A1FF00F0CBFDFFF78DFF00F064
:10041000E9FDFEE700B583B0114B9A6942F0010295
:100420009A619A6902F001020092009ADA6942F038
:100430008052DA61DB6903F080530193019B002253
:100440000F216FF0010000F0B9F8064A536823F05D
:10045000E06343F00073536003B05DF804FB00BF3A
:10046000001002400000014000B589B001460022A2
:10047000362000F0A3F8362000F0D8F8154BDA69E2
:1004800042F01002DA61DB6903F010030193019B73
:1004900002A903A800F0ECFB00F0DAFB43000E48D1
:1004A000A0FB03239B0C013B0C480D4A026040F269
:1004B000E732C260436000230361836000F042FDC5
:1004C00018B1012009B05DF804FB044800F0F0FB0E
:1004D000F8E700BF0010024083DE1B435C040020ED
:1004E00000100040FEE7FEE7FEE7FEE7FEE770478C
:1004F00008B5024800F01CFC08BD00BF5C040020E9
:1005000070470000FFF7FCFF0B480C490C4A002322
:1005100002E0D458C4500433C4188C42F9D3094AB9
:10052000094C002301E013600432A242FBD302F025
:1005300049FBFFF761FF7047000000203C040020EA
:100540002C2E00083C040020F41D0020FEE70000D3
:1005500008B5074A136843F010031360032000F046
:100560001BF80F20FFF780FFFFF754FF002008BDA6
:1005700000200240034A1168034B1B780B441360B0
:10058000704700BFA404002004000020014B18683D
:10059000704700BFA4040020074AD36823F4E06337
:1005A0001B041B0C000200F4E060034343F0BF6334
:1005B00043F40033D360704700ED00E000B5194B01
:1005C000DB68C3F30223C3F1070CBCF1040F28BF9F
:1005D0004FF0040C03F1040EBEF1060F18D9033BD3
:1005E0004FF0FF3E0EFA0CFC21EA0C0199400EFA86
:1005F00003F322EA0303194300280BDB0901C9B204
:1006000000F1604000F5614080F800135DF804FBE4
:100610000023E5E700F00F000901C9B2024B1954AD
:10062000F4E700BF00ED00E014ED00E0002807DB78
:1006300000F01F02400901239340024A42F8203093
:10064000704700BF00E100E082B0084B1B68084A19
:10065000A2FB03235B0A00FB03F3019300BF019B92
:100660005A1E0192002BF9D102B070470000002001
:10067000D34D6210002800F0F18170B582B00446BD
:10068000036813F0010F2CD0994B5B6803F00C0347
:10069000042B1DD0964B5B6803F00C03082B12D083
:1006A0006368B3F5803F41D0002B55D103F18043FF
:1006B00003F504331A6822F480321A601A6822F4AF
:1006C00080221A6037E08A4B5B6813F4803FE7D0E2
:1006D000874B1B6813F4003F03D06368002B00F0C6
:1006E000BF81236813F0020F75D0814B5B6813F054
:1006F0000C0F5FD07E4B5B6803F00C03082B54D0CB
:100700002369002B00F08A807A4B01221A60FFF7E0
:100710003DFF0546764B1B6813F0020F75D1FFF7BE
:1007200035FF401B0228F5D903209EE1704A13686B
:1007300043F480331360636843B3FFF727FF054634
:100740006B4B1B6813F4003FCBD1FFF71FFF401B1F
:100750006428F5D9032088E1B3F5A02F09D0644BB4
:100760001A6822F480321A601A6822F480221A6011
:10077000E1E703F18043A3F53C331A6842F4802299
:100780001A601A6842F480321A60D4E7FFF7FEFE5E
:100790000546574B1B6813F4003FA2D0FFF7F6FE47
:1007A000401B6428F5D903205FE1514B5B6813F4CB
:1007B000803FA5D14E4B1B6813F0020F03D0236975
:1007C000012B40F04F814A4A136823F0F803616916
:1007D00043EAC1031360236813F0080F33D0A36901
:1007E000002B5CD0434B0122C3F88024FFF7CEFEE0
:1007F00005463F4B5B6A13F0020F21D1FFF7C6FE9F
:10080000401B0228F5D903202FE1394A136823F051
:10081000F803616943EAC1031360DCE7354B00224A
:100820001A60FFF7B3FE0546314B1B6813F0020F49
:10083000D1D0FFF7ABFE401B0228F5D9032014E10D
:100840000120FFF701FF236813F0040F00F09680EA
:10085000274BDB6913F0805F34D1254BDA6942F016
:100860008052DA61DB6903F080530193019B01251B
:10087000214B1B6813F4807F26D0E368012B3DD009
:10088000002B53D103F1804303F504331A6A22F09D
:1008900001021A621A6A22F004021A6233E0154B4E
:1008A0000022C3F88024FFF771FE0546104B5B6AF7
:1008B00013F0020FC7D0FFF769FE401B0228F5D9DD
:1008C0000320D2E00025D3E70B4A136843F480737A
:1008D0001360FFF75BFE0646074B1B6813F4807F2F
:1008E000CBD1FFF753FE801B6428F5D90320BCE071
:1008F0000010024000004242007000405F4A136A4C
:1009000043F001031362E36833B3FFF73FFE06468B
:100910005A4B1B6A13F0020F2FD1FFF737FE801BD3
:1009200041F288339842F3D903209EE0052B09D089
:10093000524B1A6A22F001021A621A6A22F0040269
:100940001A62E0E74D4B1A6A42F004021A621A6A10
:1009500042F001021A62D6E7FFF718FE0646474B3F
:100960001B6A13F0020F08D0FFF710FE801B41F244
:1009700088339842F3D9032077E0E5B9E369002B87
:1009800072D03E4A526802F00C02082A56D0022B5E
:1009900017D03B4B00221A66FFF7F8FD0446374B91
:1009A0001B6813F0007F47D0FFF7F0FD001B022803
:1009B000F5D9032059E0314AD36923F08053D3613C
:1009C000DCE72F4B00221A66FFF7E0FD05462B4BB4
:1009D0001B6813F0007F06D0FFF7D8FD401B0228EC
:1009E000F5D9032041E0236AB3F5803F1AD02349AB
:1009F0004B6823F47413226A606A024313434B600A
:100A00001F4B01221A66FFF7C1FD04461B4B1B68F2
:100A100013F0007F0ED1FFF7B9FD001B0228F5D9B6
:100A2000032022E0154A536823F40033A1680B43E6
:100A30005360DCE7002018E0002016E0012B16D000
:100A40000E4B5B6803F48031226A914211D103F4AA
:100A50007013626A93420ED1002006E001207047B5
:100A6000012002E0012000E0002002B070BD012062
:100A7000FBE70120F9E70120F7E700BF0010024083
:100A8000000042420F4B5B6803F00C02082A01D0C1
:100A90000D487047C3F383420C49885C13F4803FD0
:100AA0000BD0084B5B68C3F34043094AD35C064A4A
:100AB00002FB00F0B0FBF3F07047064B03FB00F0C5
:100AC000704700BF0010024000127A00F02D0008AD
:100AD000002E000800093D00002800F0A08070B53D
:100AE0000D460446524B1B6803F007038B420BD2A2
:100AF0004F4A136823F007030B431360136803F096
:100B000007038B4240F08D80236813F0020F17D04B
:100B100013F0040F04D0474A536843F4E063536072
:100B2000236813F0080F04D0424A536843F460531B
:100B30005360404A536823F0F003A1680B435360AD
:100B4000236813F0010F31D06368012B20D0022BF2
:100B500025D0384A126812F0020F64D035494A682D
:100B600022F0030213434B60FFF710FD0646314BA2
:100B70005B6803F00C036268B3EB820F16D0FFF7DB
:100B800005FD801B41F288339842F0D9032045E0EF
:100B9000284A126812F4003FE0D101203EE0254AC5
:100BA000126812F0007FD9D1012037E0204B1B687A
:100BB00003F00703AB420AD91D4A136823F0070369
:100BC0002B431360136803F00703AB422DD1236856
:100BD00013F0040F06D0174A536823F4E063E1686A
:100BE0000B435360236813F0080F07D0114A536872
:100BF00023F46053216943EAC1035360FFF742FFC6
:100C00000C4B5B68C3F303130B4AD35CD8400B4B0C
:100C100018600B4B1868FFF727FC002070BD0120FF
:100C200070470120FAE70120F8E70120F6E700BF4E
:100C30000020024000100240D82D000800000020D3
:100C400008000020014B1868704700BF000000201A
:100C500008B5FFF7F7FF044B5B68C3F30223034AB1
:100C6000D35CD84008BD00BF00100240E82D00084A
:100C70000F2303600B4B5A6802F0030242605A686C
:100C800002F0F00282605A6802F4E062C2605B68BF
:100C9000DB0803F4E0630361034B1B6803F0070305
:100CA0000B607047001002400020024070470000B7
:100CB00090F83D30DBB2012B2FD1022380F83D307C
:100CC0000268D36843F00103D3600368154A934276
:100CD00018D002F50062934214D0B3F1804F11D0C6
:100CE000A2F5983293420DD002F58062934209D06A
:100CF00002F58062934205D01A6842F001021A6040
:100D0000002070479A6802F00702062A07D01A6886
:100D100042F001021A600020704701207047002055
:100D2000704700BF002C0140704770477047704704
:100D300010B5044603681A6912F0020F11D0DA6880
:100D400012F0020F0DD06FF002021A610123037737
:100D500003689B6913F0030F70D0FFF7E6FF0023D1
:100D6000237723681A6912F0040F12D0DA6812F0A0
:100D7000040F0ED06FF004021A6102232377236858
:100D80009B6913F4407F5FD02046FFF7CEFF00231E
:100D9000237723681A6912F0080F12D0DA6812F06C
:100DA000080F0ED06FF008021A610423237723681E
:100DB000DB6913F0030F4ED02046FFF7B6FF002388
:100DC000237723681A6912F0100F12D0DA6812F034
:100DD000100F0ED06FF010021A61082323772368DA
:100DE000DB6913F4407F3DD02046FFF79EFF0023D0
:100DF000237723681A6912F0010F03D0DA6812F022
:100E0000010F36D123681A6912F0800F03D0DA6817
:100E100012F0800F34D123681A6912F0400F03D00A
:100E2000DA6812F0400F32D123681A6912F0200FED
:100E300003D0DA6812F0200F30D110BDFFF774FF35
:100E40002046FFF773FF8AE72046FFF76DFF204635
:100E5000FFF76CFF9BE72046FFF766FF2046FFF792
:100E600065FFACE72046FFF75FFF2046FFF75EFF18
:100E7000BDE76FF001021A612046FFF77DFAC1E776
:100E80006FF080021A61204600F089F8C3E76FF026
:100E900040021A612046FFF74AFFC5E76FF02002C3
:100EA0001A61204600F07AF8C7E700000368244A78
:100EB000904212D002F5006290420ED0B0F1804F05
:100EC0000BD0A2F59832904207D002F58062904292
:100ED00003D002F58062904203D123F070034A6888
:100EE0001343174A904212D002F5006290420ED08E
:100EF000B0F1804F0BD0A2F59832904207D002F5A6
:100F00008062904203D002F58062904203D123F4C4
:100F10004073CA68134323F080034A691343036094
:100F20008B68C3620B688362054B984203D003F55C
:100F30000063984201D10B69036301234361704749
:100F4000002C014040B310B5044690F83D30F3B199
:100F5000022384F83D30214651F8040BFFF7A6FF29
:100F6000012384F8463084F83E3084F83F3084F81A
:100F7000403084F8413084F8423084F8433084F8BB
:100F8000443084F8453084F83D30002010BD80F8AE
:100F90003C30FFF78BFEDBE701207047704770475E
:100FA000EFF3058393B9EFF3108393B90C4B1868F3
:100FB000022804D080B90A4B01221A607047EFF36F
:100FC0001183002BF6D06FF0050070476FF005001D
:100FD00070476FF0050070474FF0FF30704700BF5B
:100FE0000407002008B5EFF30583B3B9EFF31083CE
:100FF000B3B90E4B1B68022B08D0012B13D10B4B3E
:1010000002221A6001F0CCF8002008BDEFF3118233
:10101000002AF2D06FF00500F7E76FF00500F4E763
:101020006FF00500F1E74FF0FF30EEE70407002016
:10103000F0B587B000240494EFF30584002C43D16D
:10104000EFF31083002B3FD1334B1B68022B16D0DC
:10105000002839D000238DF8173062B3156895B198
:10106000936903B918235C1E372C51D8546814F0C7
:10107000010F4FD156694EB14FEA960C08E0EFF3DD
:1010800011830BBBE4E70DF11705E9E74FF0800C86
:1010900094682CB1D7685B2F02D9176907B1B6B92C
:1010A00014B14FF0FF340CE0D46894B914699CB1CA
:1010B0004FF0FF3405E0002418234FF0800C0DF1B1
:1010C0001705012C0AD0ACB1049807B0F0BD01247B
:1010D000F7E74FF0FF34F4E70024F2E71469926871
:1010E0000292019400930B466246294600F0EAFF03
:1010F0000490E9E704AA019200930B461FFA8CF2D0
:10110000294601F019F80128DED000230493DBE71B
:101110000020DAE70020D8E70407002008B5EFF345
:101120000583A3B9EFF31083A3B90C4B1B68022B03
:1011300002D040B9002008BDEFF31183002BF8D096
:101140006FF00500F7E701F08FF90020F3E76FF08B
:101150000500F0E76FF00500EDE700BF0407002091
:10116000034B0360034B0B6080231360704700BF89
:10117000A8060020A8040020034B0360034B0B606B
:101180004FF4807313607047080B0020080700209D
:1011900000F1080343604FF0FF328260C3600361D7
:1011A00000230360704700230361704743684B606E
:1011B0009A688A605160996008610368013303602E
:1011C000704730B40D68B5F1FF3F11D000F108034E
:1011D0001C465B681A68AA42FAD963684B6099603A
:1011E0008C606160086103680133036030BC704744
:1011F0000469F2E70369416882688A604168516066
:101200005A68824206D0002202611A68013A1A60C6
:101210001868704782685A60F5E7000082B00023C2
:1012200001930D4B1B68B3F1FF3F08D04FF0500303
:1012300083F31188BFF36F8FBFF34F8FFEE74FF03B
:10124000500383F31188BFF36F8FBFF34F8F019B60
:10125000002BFCD002B070470C000020064800684C
:10126000006880F3088862B661B6BFF34F8FBFF3A2
:101270006F8F00DF00BF000008ED00E04FF08073CB
:1012800040F8043C21F0010140F8081C034B40F8F1
:101290000C3C40F8202C4038704700BF1D1200085D
:1012A000074B19680868B0E8F00F80F30988BFF3AE
:1012B0006F8F4FF0000080F311884EF00D0E7047D5
:1012C000C41700204FF0500383F31188BFF36F8FD2
:1012D000BFF34F8F0B4A136801331360012B00D00B
:1012E00070474FF0E023D3F8043D13F0FF0FF7D021
:1012F0004FF0500383F31188BFF36F8FBFF34F8F0D
:10130000FEE700BF0C000020094B1B6843B94FF0FB
:10131000500383F31188BFF36F8FBFF34F8FFEE746
:10132000013B034A13600BB983F31188704700BF78
:101330000C00002000000000000000000000000081
:10134000EFF30980BFF36F8F0D4B1A6820E9F00FA0
:1013500010602DE908404FF0500080F3118801F033
:10136000A9F84FF0000080F31188BDE80840196823
:101370000868B0E8F00F80F30988BFF36F8F7047FB
:10138000C417002008B54FF0500383F31188BFF352
:101390006F8FBFF34F8F00F05FFF28B14FF0E02356
:1013A0004FF08052C3F8042D002383F3118808BD49
:1013B0004FF0E022002313619361054B1B68054940
:1013C000A1FB03139B09013B536107231361704782
:1013D00000000020D34D621010B582B02A4B1A785D
:1013E000D2B20192FF221A701B78DBB28DF8033063
:1013F0009DF8033003F05003244A1370244B072256
:101400001A6009E0224A1368013B13609DF803301B
:101410005B00DBB28DF803309DF8033013F0800FD2
:10142000F0D11B4B1B68032B08D04FF0500383F304
:101430001188BFF36F8FBFF34F8FFEE71B02144A73
:10144000136003F4E0631360019BDBB20E4A137078
:101450004FF0E023D3F8202D42F47002C3F8202D82
:10146000D3F8202D42F07042C3F8202DFFF7A0FFE3
:101470000024084B1C60FFF7F1FE01F01BF8FFF79A
:10148000CDFE204602B010BD00E400E0640B002059
:10149000680B00200C000020EFF305830F2B0FD901
:1014A000114A9B5CDBB2114A12789A4208D94FF07C
:1014B000500383F31188BFF36F8FBFF34F8FFEE7A5
:1014C0004FF0E023D3F80C3D03F4E063084A1268C0
:1014D000934208D94FF0500383F31188BFF36F8F05
:1014E000BFF34F8FFEE77047F0E300E0640B00208E
:1014F000680B0020124A12F0070F1ED0D11D21F0F8
:101500000701C1F5406313440A460E4802600021FA
:1015100041601344083B23F007030B480360596004
:101520001960991A51601360084B1960084B1960D3
:10153000084B4FF000421A6070474FF44063E4E7F5
:10154000700B00207C1700206C0B00207817002007
:101550007417002070170020154B1A461B68834231
:10156000FBD3516802EB010C844509D0416800EBC4
:10157000010C634509D00360904218D01060704799
:101580004068014451601046F0E710B4094C2468EB
:10159000A3420AD05B681944416013681B6803606A
:1015A000904200D0106010BC70470460F8E77047AC
:1015B0007C1700206C0B002070B5054600F03EFE45
:1015C000344B1B68A3B1344B1B681D424AD135B163
:1015D000083515F0070F02D025F007050835002D56
:1015E00042D02E4B1B68AB424DD32D4A146804E009
:1015F000FFF780FFE7E722461C466368AB4202D252
:101600002368002BF7D1234B1B68A3423DD01668FB
:1016100008362368136063685B1B102B10D96019B0
:1016200010F0070F08D04FF0500383F31188BFF379
:101630006F8FBFF34F8FFEE743606560FFF78CFF4E
:10164000626816490B689B1A0B60164909688B4241
:1016500001D214490B60104B1B68134363600023D5
:10166000236002E0002600E0002600F081FE16F074
:10167000070F0CD04FF0500383F31188BFF36F8F27
:10168000BFF34F8FFEE70026EFE70026EDE7304679
:1016900070BD00BF6C0B0020701700207417002075
:1016A0007C1700207817002080B338B50446A0F1DD
:1016B000080550F8043C164A1268134208D14FF04E
:1016C000500383F31188BFF36F8FBFF34F8FFEE793
:1016D00050F8081C41B14FF0500383F31188BFF359
:1016E0006F8FBFF34F8FFEE723EA020340F8043CFD
:1016F00000F0A4FD54F8041C064A13680B44136060
:101700002846FFF729FF00F033FE38BD704700BFC1
:10171000701700207417002010B50446FFF7D2FDA3
:10172000A26BE36B9A4204D00024FFF7EDFD204644
:1017300010BD0124F9E710B50446FFF7C3FDA36B04
:1017400023B90124FFF7E0FD204610BD0024F9E78E
:1017500070B504461546866B026C5AB903681BB116
:1017600000200136A66370BD406800F0CBFF002367
:101770006360F6E76DB98068FEF75AFD226CA368D6
:101780001344A3606268934219D32368A360284678
:10179000E7E7C068FEF74CFD226C5142E3689B1AF4
:1017A000E3602268934202D263680B44E360022D37
:1017B00001D00020D5E726B1013E0020D1E7284620
:1017C000CFE70020CDE708B50346026C62B10846BA
:1017D000D9681144D960D3F804C0614501D31968B0
:1017E000D960D968FEF724FD08BD38B50546FFF776
:1017F00069FD95F8454064B201E0013C64B2002CFB
:101800000ADD6B6A43B105F1240000F0D1FE002827
:10181000F3D000F061FFF0E7FF2385F84530FFF7D4
:1018200073FDFFF74FFD95F8444064B201E0013CC1
:1018300064B2002C0ADD2B6943B105F1100000F001
:10184000B7FE0028F3D000F047FFF0E7FF2385F84C
:101850004430FFF759FD38BD38B5E0B10D460446B8
:10186000FFF730FD2368E26B216C01FB0230606002
:101870000020A063A360013A02FB0133E360FF2371
:1018800084F8443084F84530FDB9236963B9FFF723
:101890003BFD012038BD4FF0500383F31188BFF3A7
:1018A0006F8FBFF34F8FFEE704F1100000F080FE52
:1018B0000028ECD04FF0E0234FF08052C3F8042D05
:1018C000BFF34F8FBFF36F8FE1E704F11000FFF715
:1018D0005FFC04F12400FFF75BFCD8E738B51D4638
:1018E000049C0B4649B92460E0632364012120462F
:1018F000FFF7B2FF84F84C5038BD2260F4E740B9DE
:101900004FF0500383F31188BFF36F8FBFF34F8FF6
:10191000FEE710B584B01C46844653B192B189B934
:101920004FF0500383F31188BFF36F8FBFF34F8FD6
:10193000FEE74FF0500383F31188BFF36F8FBFF3BF
:101940004F8FFEE76AB150230393039B502B13D0B4
:101950004FF0500383F31188BFF36F8FBFF34F8FA6
:10196000FEE70029EFD04FF0500383F31188BFF357
:101970006F8FBFF34F8FFEE7012384F8463000944A
:101980009DF818306046FFF7A9FF204604B010BD4F
:10199000F0B585B0019288B10F461D460446B1B13D
:1019A000022D20D1E36B012B1DD04FF0500383F3A8
:1019B0001188BFF36F8FBFF34F8FFEE74FF05003D7
:1019C00083F31188BFF36F8FBFF34F8FFEE7036C74
:1019D000002BE5D04FF0500383F31188BFF36F8FD6
:1019E000BFF34F8FFEE700F07DFE064658B9019B1E
:1019F000002B48D04FF0500383F31188BFF36F8F53
:101A0000BFF34F8FFEE700263DE02A4639462046C9
:101A1000FFF79EFE636A7BB948B14FF0E0234FF0B9
:101A20008052C3F8042DBFF34F8FBFF36F8FFFF7C2
:101A30006BFC012005B0F0BD04F1240000F0B8FDFE
:101A40000028F4D04FF0E0234FF08052C3F8042D6B
:101A5000BFF34F8FBFF36F8FE9E7FFF755FC00200F
:101A6000E8E702A800F0EAFD012619E0002384F867
:101A7000443021E0002384F8453023E02046FFF77E
:101A8000B4FE00F075FCFFF71DFCA26BE36B9A42FD
:101A9000BBD3022DB9D0019B002BDED0002EE0D0AD
:101AA000FFF732FC00F0CAFBFFF70CFC94F844206F
:101AB00052B2B2F1FF3FD9D094F8452052B2B2F100
:101AC000FF3FD7D0FFF720FC01A902A800F0C2FD1C
:101AD000D8B92046FFF720FE0028CFD0019904F1A5
:101AE000100000F031FD2046FFF77FFE00F040FCC3
:101AF0000028C8D14FF0E0234FF08052C3F8042DE6
:101B0000BFF34F8FBFF36F8FBDE72046FFF76DFE2A
:101B100000F02EFC00208DE72DE9F84390B10F4630
:101B200016461C460546B1B1022C20D1EB6B012BA9
:101B30001DD04FF0500383F31188BFF36F8FBFF3B5
:101B40004F8FFEE74FF0500383F31188BFF36F8F81
:101B5000BFF34F8FFEE7036C002BE5D04FF050032F
:101B600083F31188BFF36F8FBFF34F8FFEE7FFF74B
:101B700093FCEFF311894FF0500383F31188BFF307
:101B80006F8FBFF34F8FAA6BEB6B9A4206D3022C79
:101B900004D0002089F31188BDE8F88395F84580CA
:101BA0004FFA88F8224639462846FFF7D1FDB8F1AA
:101BB000FF3F06D008F101035BB285F845300120F4
:101BC000E8E76B6A0BB90120E4E705F1240000F0B7
:101BD000EFFC18B126B101203060DBE70120D9E726
:101BE0000120D7E7F0B585B0019290B10F460446C9
:101BF000C1B100F077FD064600BB019B002B5ED013
:101C00004FF0500383F31188BFF36F8FBFF34F8FF3
:101C1000FEE74FF0500383F31188BFF36F8FBFF3DC
:101C20004F8FFEE7036C002BE3D04FF0500383F39C
:101C30001188BFF36F8FBFF34F8FFEE700263EE0A2
:101C400039462046FFF7BFFD013DA563236923B94F
:101C5000FFF75AFB012005B0F0BD04F1100000F0C1
:101C6000A7FC0028F4D04FF0E0234FF08052C3F8D7
:101C7000042DBFF34F8FBFF36F8FE9E7FFF744FBEE
:101C80000020E8E702A800F0D9FC012621E00023AB
:101C900084F8443029E0002384F845302BE02046C6
:101CA000FFF7A3FD00F064FB09E02046FFF79DFD70
:101CB00000F05EFB2046FFF73EFD00283FD1FFF716
:101CC00001FBA56B002DBBD1019B002BD6D0002EB4
:101CD000D8D0FFF719FB00F0B1FAFFF7F3FA94F848
:101CE00044305BB2B3F1FF3FD1D094F845305BB2E2
:101CF000B3F1FF3FCFD0FFF707FB01A902A800F027
:101D0000A9FC0028D1D12046FFF715FD0028C6D038
:101D1000019904F1240000F017FC2046FFF765FD4F
:101D200000F026FB0028CAD14FF0E0234FF080528C
:101D3000C3F8042DBFF34F8FBFF36F8FBFE70020B1
:101D400089E700000023072B0CD8074A52F83320FC
:101D50000AB10133F7E7044A42F8331002EBC30338
:101D600058607047704700BF8417002070B5044664
:101D70000D461646FFF7A6FA94F844305BB2B3F16D
:101D8000FF3F0DD094F845305BB2B3F1FF3F0BD06D
:101D9000FFF7BAFAA36B5BB12046FFF726FD70BDD3
:101DA000002384F84430EDE7002384F84530EFE762
:101DB0003246294604F1240000F0DEFBECE7000087
:101DC000084B1B681B6823B9074B4FF0FF321A60A2
:101DD0007047044B1B68DB68DB685A68024B1A606B
:101DE000704700BFC8170020741C00202DE9F04781
:101DF00080460D4617469946089EDDF824A00A9CA9
:101E00009200A521206B00F001FF236B07F18042B7
:101E1000013A03EB820727F007074FF0000CBCF1F3
:101E20000F0F0BD815F80C2004EB0C0383F83420AB
:101E300015F80C3013B10CF1010CF0E7002384F815
:101E40004330372E00D93726E662E6640025256543
:101E5000201DFFF7A8F904F11800FFF7A4F9246189
:101E6000C6F13806A6616462656584F858504A4632
:101E700041463846FFF702FA2060BAF1000F01D060
:101E8000CAF80040BDE8F08738B5002407E004EB4D
:101E9000840293000E481844FFF77AF90134372C76
:101EA000F5D90C4D2846FFF773F90B4C2046FFF788
:101EB0006FF90A48FFF76CF90948FFF769F9094813
:101EC000FFF766F9084B1D60084B1C6038BD00BF6A
:101ED000D0170020481C00205C1C00207C1C002027
:101EE000A81C0020941C0020C8170020CC1700203C
:101EF00010B50446FFF7E6F9224A13680133136070
:101F0000214B1B685BB1214B1B686BB91E4B1B68D7
:101F1000DA6AE36A9A4207D81B4B1C6004E01A4B4A
:101F20001C601368012B29D0194A13680133136010
:101F30006364E06A174B1B68984201D9154B18601F
:101F400000EB8000211D144B03EB8000FFF72EF9FE
:101F5000FFF7DAF90D4B1B687BB10B4B1B68DA6A94
:101F6000E36A9A4209D24FF0E0234FF08052C3F85F
:101F7000042DBFF34F8FBFF36F8F10BDFFF784FFAA
:101F8000D2E700BF301C0020C4170020901C0020A6
:101F9000401C0020441C0020D017002010B504462F
:101FA00090F8593063B1012B11D0022B0ED04FF0B5
:101FB000500383F31188BFF36F8FBFF34F8FFEE79A
:101FC000006BFFF771FB2046FFF76EFB10BDFFF7BC
:101FD0006BFBFBE70F4B1B68D3B110B5FFF772F932
:101FE0000D4BDB68DC68201DFFF704F90B4A136812
:101FF000013B1360074A1368013B1360FFF784F944
:102000002046FFF7CBFF034B1B68002BE6D110BD2A
:10201000704700BF341C0020A81C0020301C00208A
:1020200008B5FFF7D7FF074B1B68012BF9D94FF015
:10203000E0234FF08052C3F8042DBFF34F8FBFF35E
:102040006F8FEEE7D017002070B504460D46174B92
:102050001E68174B18680430FFF7CCF8B4F1FF3F47
:102060000DD03444124B1B685C60A64210D9114B52
:1020700018680F4B19680431FFF7A3F870BD002DE5
:10208000EFD00B4B196804310B48FFF78FF8F5E7D9
:102090000A4B1868064B19680431FFF792F8084B91
:1020A0001B68A342EAD9064B1C60E7E7BC1C002072
:1020B000C4170020CC170020941C0020C817002053
:1020C000741C002030B587B00B9C7CB10C9DB5B161
:1020D0005C250495049D5C2D1AD04FF0500383F3CA
:1020E0001188BFF36F8FBFF34F8FFEE74FF05003A0
:1020F00083F31188BFF36F8FBFF34F8FFEE74FF06D
:10210000500383F31188BFF36F8FBFF34F8FFEE748
:102110000C9D2C63022485F85940002403940295F9
:1021200005AC01940A9C0094FFF760FE0C98FFF741
:10213000DFFE059807B030BD2DE9F04385B00746B6
:10214000884614461E469000FFF736FA00B38146D3
:102150005C20FFF731FA0546B0B1C0F83090E5B128
:10216000002385F85930039302950D9B01930C9B36
:1021700000933346224641463846FFF737FE28464D
:10218000FFF7B6FE012005E04846FFF78DFAE6E7C7
:102190004FF0FF3005B0BDE8F0834FF0FF30F9E7B6
:1021A00010B588B000240594069407AA06A905A8CE
:1021B000FEF7D6FF059B0293069B019300942346EE
:1021C000079A18491848FFF77DFF184B186040B16F
:1021D00000F04CFB012806D0B0F1FF3F18D008B04A
:1021E00010BD0020F6E74FF0500383F31188BFF3D2
:1021F0006F8FBFF34F8F0E4B4FF0FF321A600D4BB6
:1022000001221A600C4B00221A60FFF7E5F8E6E79E
:102210004FF0500383F31188BFF36F8FBFF34F8FDD
:10222000FEE700BF042E000821200008701C0020DB
:10223000741C0020901C0020BC1C0020024A136863
:1022400001331360704700BF3C1C0020014B18682D
:10225000704700BFBC1C0020F8B53A4B1B68002B30
:1022600064D1394B1D6801351D60C5B9374B1B68FA
:102270001B6843B14FF0500383F31188BFF36F8F96
:10228000BFF34F8FFEE7314A1168314B1868106079
:102290001960304A136801331360FFF791FD2E4B2C
:1022A0001B68AB4238D900272C4B1B68DB6A03EB59
:1022B00083039A002A4B9B58012B3CD901273AE013
:1022C0000127224B1B681B6843B3204B1B68DB684C
:1022D000DC6863689D4226D3261D3046FEF78AFFE0
:1022E000A36A1BB104F11800FEF784FFE36A1D4ADC
:1022F0001268934201D91B4A136003EB83039A00CF
:10230000314617481044FEF751FFE26A134B1B6831
:10231000DB6A9A42D4D2D4E70027D2E70E4B4FF0C3
:10232000FF321A60C0E70C4A1360BDE70E4A13681B
:102330000133136000270D4B1B6803B1012738469A
:10234000F8BD00BF3C1C0020BC1C0020C8170020AA
:10235000CC170020781C0020741C0020C41700201B
:10236000D0170020441C0020381C0020C01C002076
:1023700038B5354B1B6843B94FF0500383F31188D0
:10238000BFF36F8FBFF34F8FFEE7FEF79BFF2E4B20
:102390001A68013A1A601B68002B4FD12B4B1B683F
:1023A0000BB900244BE00024294B1B681BB3284BBE
:1023B000DB68DC6804F11800FEF71CFF251D2846C9
:1023C000FEF718FFE06A234B1B68984201D9214BA6
:1023D000186000EB800029461F4B03EB8000FEF7DE
:1023E000E5FEE26A1D4B1B68DB6A9A42DCD31C4B9C
:1023F00001221A60D8E70CB1FFF7E2FC194B1C6808
:1024000084B9174B1C68D4B14FF0E0234FF08052D1
:10241000C3F8042DBFF34F8FBFF36F8F01240EE07D
:10242000013C07D0FFF718FF0028F9D00C4B012220
:102430001A60F5E70B4B00221A60E2E70024FEF772
:1024400063FF204638BD00BF3C1C0020301C00202C
:102450007C1C0020441C0020D0170020C417002042
:10246000C01C0020381C002010B5A8B10446104B39
:102470001B6843B14FF0500383F31188BFF36F8F94
:10248000BFF34F8FFEE7FFF7D9FE00212046FFF78D
:10249000DBFDFFF76DFF48B94FF0E0234FF08052AE
:1024A000C3F8042DBFF34F8FBFF36F8F10BD00BF74
:1024B0003C1C00201F4B1B681BB11F4B01221A60E4
:1024C00070471D4B00221A601C4B1B6803EB8301F5
:1024D0008A001B498A585AB90BB1013BF6E74FF005
:1024E000500383F31188BFF36F8FBFF34F8FFEE765
:1024F00003EB830082000A4450684068506003EB9D
:10250000830C4FEA8C020832114488420BD003EB53
:10251000830291000A4A0A445268D168094A11604C
:10252000064A13607047406862469100044A0A44B4
:102530005060ECE73C1C0020C01C0020441C002024
:10254000D0170020C417002058B110B50C46094A16
:1025500011681831FEF735FE01212046FFF774FDA2
:1025600010BD4FF0500383F31188BFF36F8FBFF39B
:102570004F8FFEE7C417002038B570B10D461446E2
:102580000A4A11681831FEF711FE0CB14FF0FF3501
:1025900021462846FFF758FD38BD4FF0500383F31E
:1025A0001188BFF36F8FBFF34F8FFEE7C417002072
:1025B00038B5C368DC6824B304F118052846FEF773
:1025C00019FE184B1B682BBB251D2846FEF712FE73
:1025D000E06A154B1B68984201D9134B186000EB59
:1025E00080002946114B03EB8000FEF7DFFDE26A15
:1025F0000F4B1B68DB6A9A4211D901200D4B186002
:1026000038BD4FF0500383F31188BFF36F8FBFF3D2
:102610004F8FFEE729460848FEF7C8FDE7E7002090
:10262000EEE700BF3C1C0020441C0020D017002017
:10263000C4170020C01C00207C1C0020034B1B681A
:102640000360034B1B684360704700BF781C002089
:10265000BC1C0020D8B170B50C46054601B3FEF78E
:1026600031FE1B4B19686B68C81A2268B2F1FF3F34
:1026700027D0184E3668D5F800C0B44501D08B423B
:1026800024D9824215D80023236001241AE04FF098
:10269000500383F31188BFF36F8FBFF34F8FFEE7B3
:1026A0004FF0500383F31188BFF36F8FBFF34F8F49
:1026B000FEE75B1A134423602846FFF7BFFF0024A0
:1026C00000E00024FEF720FE204670BD0124F9E75B
:1026D000BC1C0020781C0020014B01221A607047AE
:1026E000C01C0020054B1B6833B1054B1B680BB1A8
:1026F000002070470220704701207047901C002086
:102700003C1C002000283BD038B504461E4B1B68FB
:10271000834208D04FF0500383F31188BFF36F8FCB
:10272000BFF34F8FFEE7036D43B94FF0500383F3C0
:102730001188BFF36F8FBFF34F8FFEE7013B036537
:10274000C16AC26C91421DD00BB1002038BD051D7D
:102750002846FEF74FFDE06CE062C0F13803A3614C
:102760000A4B1B68984201D9084B186000EB8000A7
:102770002946074B03EB8000FEF718FD0120E5E733
:10278000002070470020E1E7C4170020441C00200F
:10279000D0170020064B1A681368B3FA83F35B095D
:1027A000036013B9D368186870470020704700BFF2
:1027B000C41C002008B54160006191420CD8D21AB7
:1027C00083699A4201D3012008BD011D094B186895
:1027D000FEF7F7FC0020F7E79A4201D2994206D2B1
:1027E000011D054B1868FEF7ECFC0020ECE701200A
:1027F000EAE700BFC81C0020C41C002030B583B02D
:10280000FEF760FD114B1B681BB1FEF77DFD03B0A9
:1028100030BD0F4D2846FEF7BBFC0E4C2046FEF7A0
:10282000B7FC0D4B1D600D4B1C60002300930C4B3F
:102830000C4A10210A20FFF762F8044B18600028A8
:10284000E3D00949FFF77EFADFE700BFE81D00206B
:102850006C1D0020801D0020C41C0020C81C00200E
:10286000981D0020CC1C00200C2E000810B588B04C
:10287000FFF7C4FF124B1B68CBB1002405940694EC
:1028800007AA06A905A8FEF777FC059B0293069BFD
:102890000193022300932346079A0A490A48FFF747
:1028A00011FC0A4B186010B1012008B010BD4FF0A8
:1028B000500383F31188BFF36F8FBFF34F8FFEE791
:1028C000E81D0020142E0008AD2B0008EC1D002090
:1028D000B8B19C4603461848006858B300B585B0A7
:1028E00000910192029305291CDCFFF7FBFE0228F0
:1028F00010D000231A4669460F480068FFF748F8D1
:1029000015E04FF0500383F31188BFF36F8FBFF3CF
:102910004F8FFEE70023069A694607480068FFF7D5
:1029200037F804E0002362466946FFF7F5F805B082
:102930005DF804FB00207047E81D002070B582B0F0
:102940001A4B1B681A6852B3DB681E68DC68251DC9
:102950002846FEF74FFC636A20469847E369012B3F
:10296000EED1A36933449E4207D2636024612946B5
:102970000E4B1868FEF725FCE2E7002100910B469C
:1029800032462046FFF7A4FF0028D9D14FF050036C
:1029900083F31188BFF36F8FBFF34F8FFEE7044AB5
:1029A000106802490860136002B070BDC41C0020AA
:1029B000C81C002038B50546FFF748FC0446074B05
:1029C0001B68834205D800232B60044B1C60204603
:1029D00038BDFFF7B3FF01232B60F6E7941D0020FD
:1029E00070B582B006460D4614490968C968CC68BE
:1029F000201DFEF7FFFBE169012904D0636A204630
:102A0000984702B070BDA16933462A46314420463A
:102A1000FFF7D0FE0028F1D0002100910B4632468E
:102A20002046FFF755FF0028E8D14FF0500383F30D
:102A30001188BFF36F8FBFF34F8FFEE7C41C0020D8
:102A400070B582B006460C46FFF7F8FB01A8FFF709
:102A5000B1FF019B2BBB05460CB9B0421AD22CB179
:102A6000124B1B681C68B4FA84F464092246711B7B
:102A70000F4B1868FFF77AF9FFF77AFC98B94FF017
:102A8000E0234FF08052C3F8042DBFF34F8FBFF304
:102A90006F8F08E0FFF76CFC29463046FFF7A0FF78
:102AA00001E0FFF765FC02B070BD00BFC81C00204C
:102AB000E81D002010B588B002E0049B002B0FDA5F
:102AC000002204A9384B1868FFF78CF8002869D059
:102AD000049B002BF1DA07990698059B9847ECE7D1
:102AE000069C636913B1201DFEF784FB03A8FFF762
:102AF00061FF049B092BE3D801A252F823F000BF29
:102B0000292B0008292B0008292B0008C12A0008BE
:102B10006F2B0008952B0008292B0008292B000893
:102B2000C12A00086F2B0008059BA16902461944C1
:102B30002046FFF73FFE0028C2D0636A2046984730
:102B4000E369012BBCD1A269002100910B460598D5
:102B500002442046FFF7BCFE0028B1D14FF05003DD
:102B600083F31188BFF36F8FBFF34F8FFEE7059993
:102B7000A16131B10346024601442046FFF71AFE27
:102B80009EE74FF0500383F31188BFF36F8FBFF3BD
:102B90004F8FFEE794F82C30002B91D12046FEF7A2
:102BA00083FD8DE708B010BDE81D002000B583B09F
:102BB00001A8FFF7EFFD0199FFF742FFFFF77AFF4A
:102BC000F6E7000070B50D4E0D4D761BB61006D021
:102BD000002455F8043B01349847A642F9D1094E28
:102BE000094D00F0D5F8761BB61006D0002455F834
:102BF000043B01349847A642F9D170BD202E00084D
:102C0000202E0008282E0008202E0008830730B54B
:102C100048D0541E002A3FD00346CAB201E0013C0E
:102C20003AD303F8012B9D07F9D1032C2DD9CDB24E
:102C300045EA05250F2C45EA054536D9A4F11002D1
:102C400022F00F0C03F1200EE6444FEA121C03F1B0
:102C5000100242E9045542E9025510327245F8D19A
:102C60000CF1010214F00C0F03EB021204F00F0C34
:102C700013D0ACF1040323F003030433134442F8EC
:102C8000045B9342FBD10CF003042CB1CAB21C4488
:102C900003F8012B9C42FBD130BD64461346002C47
:102CA000F4D1F9E703461446BFE71A46A446E0E725
:102CB000024B13B1024800F005B870470000000055
:102CC000D12C0008002301461A46184600F01AB815
:102CD00038B5084B084D5B1B9C1007D0043B1D44C6
:102CE000013C55F804399847002CF9D1BDE838402B
:102CF00000F054B82C2E0008282E0008704700BFA2
:102D0000704700BF2DE9F047DFF87CA00646DAF8EF
:102D1000000098460F469146FFF7F0FF1B4B1B68DB
:102D2000D3F8484124B365681F2D26DC5EB96B1CBF
:102D30000235DAF80000636044F82570FFF7E0FF21
:102D40000020BDE8F087012304EB8501C1F88890DD
:102D5000D4F88821AB401A43022EC4F88821C1F868
:102D60000881E4D1D4F88C211343C4F88C31DEE718
:102D700003F5A674C3F84841D5E7DAF80000FFF779
:102D8000BFFF4FF0FF30DCE7380400201C2E0008A6
:102D9000F8B500BFF8BC08BC9E467047F8B500BF48
:082DA000F8BC08BC9E46704718
:102DA80064656661756C745461736B00A82D0008C6
:102DB800000000000000000000000000000000000B
:102DC80000020000180000000000000000000000E1
:102DD80000000000000000000102030406070809C3
:102DE80000000000010203040203040506070809A5
:102DF8000A0B0C0D0E0F10100102000049444C453F
:102E080000000000546D725100000000546D7220E3
:082E1800537663001000002056
:082E2000B12C000815020008A6
:042E2800F1010008AC
:102E2C000024F4000100000010000000AAAAAAAAC5
:102E3C0000000000FC02002064030020CC030020F2
:102E4C000000000000000000000000000000000076
:102E5C000000000000000000000000000000000066
:102E6C000000000000000000000000000000000056
:102E7C000000000000000000000000000000000046
:102E8C000000000000000000000000000000000036
:102E9C000000000000000000000000000000000026
:102EAC000000000000000000000000000000000016
:102EBC000000000000000000000000000000000006
:102ECC0000000000000000000000000000000000F6
:102EDC0000000000000000000100000000000000E5
:102EEC000E33CDAB34126DE6ECDE05000B000000AA
:102EFC0000000000000000000000000000000000C6
:102F0C0000000000000000000000000000000000B5
:102F1C0000000000000000000000000000000000A5
:102F2C000000000000000000000000000000000095
:0C325C000000000000000000F01D002039
:0400000508000505E5
:00000001FF
